:020000040000fa
:080000000001040000000000f3
:020000040000fa
:0400080008020000ea
:020000040000fa
:04000c004a020000a4
:020000040000fa
:040010008a02000060
:020000040000fa
:0400140028020000be
:020000040000fa
:040018006a02000078
:020000040000fa
:04001c005403000089
:020000040000fa
:040020005403000085
:020000040000fa
:040024005403000081
:020000040000fa
:04002800540300007d
:020000040000fa
:04002c005403000079
:020000040000fa
:040030005403000075
:020000040000fa
:04003400aa0200001c
:020000040000fa
:04003800540300006d
:020000040000fa
:04003c005403000069
:020000040000fa
:040040005403000065
:020000040000fa
:040044005403000061
:020000040000fa
:04004800540300005d
:020000040000fa
:04004c005403000059
:020000040000fa
:040050005403000055
:020000040000fa
:04005400d0020000d6
:020000040000fa
:04005800540300004d
:020000040000fa
:04005c005403000049
:020000040000fa
:040060005403000045
:020000040000fa
:040064005403000041
:020000040000fa
:04006800540300003d
:020000040000fa
:04006c005403000039
:020000040000fa
:040070005403000035
:020000040000fa
:040074005403000031
:020000040000fa
:04007800540300002d
:020000040000fa
:04007c005403000029
:020000040000fa
:040080005403000025
:020000040000fa
:040084005403000021
:020000040000fa
:04008800540300001d
:020000040000fa
:04008c005403000019
:020000040000fa
:040090005403000015
:020000040000fa
:040094005403000011
:020000040000fa
:04009800540300000d
:020000040000fa
:04009c005403000009
:020000040000fa
:0400a0005403000005
:020000040000fa
:0400a4005403000001
:020000040000fa
:0400a80054030000fd
:020000040000fa
:0400ac0054030000f9
:020000040000fa
:0400b00054030000f5
:020000040000fa
:0400b40054030000f1
:020000040000fa
:0400b80054030000ed
:020000040000fa
:0400bc0054030000e9
:020000040000fa
:0400c00054030000e5
:020000040000fa
:0400c40054030000e1
:020000040000fa
:0400c80054030000dd
:020000040000fa
:0400cc0054030000d9
:020000040000fa
:0400d00054030000d5
:020000040000fa
:0400d40054030000d1
:020000040000fa
:0400d80054030000cd
:020000040000fa
:0400dc0054030000c9
:020000040000fa
:0400e00054030000c5
:020000040000fa
:0400e40054030000c1
:020000040000fa
:0400e80054030000bd
:020000040000fa
:0400ec0054030000b9
:020000040000fa
:0400f00054030000b5
:020000040000fa
:0400f40054030000b1
:020000040000fa
:0400f80054030000ad
:020000040000fa
:0400fc0054030000a9
:020000040000fa
:0401000054030000a4
:020000040000fa
:0401040054030000a0
:020000040000fa
:04010800540300009c
:020000040000fa
:04010c005403000098
:020000040000fa
:040110005403000094
:020000040000fa
:040114005403000090
:020000040000fa
:04011800540300008c
:020000040000fa
:04011c005403000088
:020000040000fa
:040120005403000084
:020000040000fa
:040124005403000080
:020000040000fa
:04012800540300007c
:020000040000fa
:04012c005403000078
:020000040000fa
:040130005403000074
:020000040000fa
:040134005403000070
:020000040000fa
:04013800540300006c
:020000040000fa
:04013c005403000068
:020000040000fa
:040140005403000064
:020000040000fa
:040144005403000060
:020000040000fa
:04014800540300005c
:020000040000fa
:04014c005403000058
:020000040000fa
:040150005403000054
:020000040000fa
:040154005403000050
:020000040000fa
:04015800540300004c
:020000040000fa
:04015c005403000048
:020000040000fa
:040160005403000044
:020000040000fa
:040164005403000040
:020000040000fa
:04016800540300003c
:020000040000fa
:04016c005403000038
:020000040000fa
:040170005403000034
:020000040000fa
:040174005403000030
:020000040000fa
:04017800540300002c
:020000040000fa
:04017c005403000028
:020000040000fa
:040180005403000024
:020000040000fa
:040184005403000020
:020000040000fa
:04018800540300001c
:020000040000fa
:04018c005403000018
:020000040000fa
:040190005403000014
:020000040000fa
:040194005403000010
:020000040000fa
:04019800540300000c
:020000040000fa
:04019c005403000008
:020000040000fa
:0401a0005403000004
:020000040000fa
:0401a4005403000000
:020000040000fa
:0401a80054030000fc
:020000040000fa
:0401ac0054030000f8
:020000040000fa
:0401b00054030000f4
:020000040000fa
:0401b40054030000f0
:020000040000fa
:0401b80054030000ec
:020000040000fa
:0401bc0054030000e8
:020000040000fa
:0401c00054030000e4
:020000040000fa
:0401c40054030000e0
:020000040000fa
:0401c80054030000dc
:020000040000fa
:0401cc0054030000d8
:020000040000fa
:0401d00054030000d4
:020000040000fa
:0401d40054030000d0
:020000040000fa
:0401d80054030000cc
:020000040000fa
:0401dc0054030000c8
:020000040000fa
:0401e00054030000c4
:020000040000fa
:0401e40054030000c0
:020000040000fa
:0401e80054030000bc
:020000040000fa
:0401ec0054030000b8
:020000040000fa
:0401f00054030000b4
:020000040000fa
:0401f40054030000b0
:020000040000fa
:0401f80054030000ac
:020000040000fa
:0401fc0054030000a8
:020000040000fa
:10020000cfcf21000eff27000e0188000000000064
:10021000000020000000e000020032000001200089
:100220002002880014000700210107000000e00000
:1002300003003a00a01e2300010020000200370046
:100240000000200001002000810f7000010032003a
:1002500014000700000020000000e000020032004f
:100260000000020000000000642d020000000000f9
:100270000040da000000fe004440a900a01f20005a
:100280000000e00003003200002020009001880000
:100290004440a800000006008a1f78008b1f7800e9
:1002a00000000600a1028800800478000000eb0036
:1002b0001f003700e284440054a0b4009905ba003e
:1002c000e284440054a0b4009906ba00e2844400d9
:1002d00054a0b4000006eb00476fde00fd07b2003b
:1002e000ae018800636ce10003003a00eaff0700fa
:1002f0000000eb000e003700606ce10008003a00df
:10030000004deb000a05e800020039003420ec0043
:100310000af0a0008b05e900f9ff3e000400370059
:100320006168e100010032000086eb000b0007006d
:1003300019c7ba001905ba000e04e00003003a001c
:100340000a00e000dbff3a0000000600fe07b200f2
:10035000ae0288008a047800f5ff37000cd0a300b5
:10036000e20f4d001c00390089027800354dba00bb
:100370000a05e800020039003420ec000af0a00071
:100380008b05e9000f003200254dba000a05e80090
:10039000020039003420ec000af0a0008b05e900cf
:1003a000080032000c00e0000600320015cdba0053
:1003b0000a05e800020039003420ec000af0a00031
:1003c0008b05e9008984e80054a0b4000b00e0002c
:1003d000e2ff3a00000006009902ba00055d7800cd
:1003e0008b05e900f7ff3200c82ade00055d7800c2
:1003f0008b05e900f3ff32000c00e000f1ff320052
:1004000019ddba00eeff3700fe30040000000000e6
:100410003600f800809fbe00829fbe00849fbe0011
:10042000869fbe000000fa008020a9000000eb00bb
:10043000561807000080fa004f03be004f02be00ae
:100440004f01be004f00be003600f900004006001c
:100450003600f800809fbe00829fbe00849fbe00d1
:10046000869fbe000000fa004f1807008040a900d8
:1004700010002000451807000080fa004f03be005e
:100480004f02be004f01be004f00be003600f90013
:10049000004006003600f800809fbe00829fbe002c
:1004a000849fbe00869fbe000000fa008060a90005
:1004b00020002000351807000080fa004f03be001e
:1004c0004f02be004f01be004f00be003600f900d3
:1004d000004006003600f800809fbe00829fbe00ec
:1004e000849fbe00869fbe000000fa008080a900a5
:1004f00030002000251807000080fa004f03be00de
:100500004f02be004f01be004f00be003600f90092
:10051000004006003600f800809fbe00829fbe00ab
:10052000849fbe00869fbe000000fa008600a900de
:1005300070002000151807000080fa004f03be006d
:100540004f02be004f01be004f00be003600f90052
:1005500000400600809fbe000000fa008860a900ed
:10056000304180000000e0000a003400e0408000dc
:100570000000e800e0408800e14080003041800059
:10058000808f5000030035001c28ef001000200071
:10059000f04088000080fa004f00be0000400600d6
:1005a000809fbe00821f78000200fa008960a900c7
:1005b000d01c8000620060000000e0002b003200d0
:1005c0009a23a90030003700f01c8000004f78000b
:1005d000b04080000000e0000a003a001e407800b1
:1005e000ed4f5000230032001e407800ea4f5000cb
:1005f0002200320000c2b3009e40780080cf50003d
:1006000020003200b1408000e00f2000808f5000b9
:1006100014003c00b0408000418320001e4178005f
:10062000827078000000e800b0408800d0c7b300b6
:100630009e40780080cf5000030032001e407800ba
:10064000ea4f500010003a00b04080004183200083
:100650000041eb008270780010002000c04088004c
:10066000090037001628ef000700370000000000df
:100670000500370000000000030037000000000004
:100680000100370000000000d01c80006100600005
:100690000000e000ccff3a000080fa004f01780033
:1006a0004f00be00004006000040da000000fe00df
:1006b000000005000001be003f0007000470a70015
:1006c00003f0a1006509b100160032000d003500ed
:1006d0006828e10006003500f0ff2f00f1ff270039
:1006e0000300e00013003b000100280000000500ab
:1006f00000004000818048008502e900fcff3a00cc
:1007000008003700f88f420002003c008000eb0038
:10071000000005008100d1000080d3008502e800c0
:10072000fcff3a000300e00002003b006000100004
:10073000e0801800000006000001be001e00070057
:100740000470a70003f0a10003f8a30013003a000f
:100750006509b10010003200090035006928e10088
:1007600002003500010028000000050000004000e4
:10077000818048008502e900fcff3a000000060085
:10078000f88f4200050035008100d1000080d300c1
:100790008502e800fcff3a00000006008000eb0044
:1007a000000005004f89de00820178006c033700ed
:1007b0006011b8007a033700c70ade00f107b20003
:1007c000f50fb20008003200e1cf42000200320013
:1007d0000170a00024000500810f700001003200ac
:1007e0000408050044000500810f700002003a0073
:1007f000140005008502e9000000400081c04800a7
:10080000fcff3b000170a0002400050007f8270052
:10081000078361000638e10004003a00f707200072
:10082000878361008703710001003a0003f0a20092
:10083000889fbe008a9fbe008c9fbe00470ade00d4
:100840000480a100c71ade000580a100070028006f
:100850000785600087856100f70f20000720e10011
:100860009e0032000728e1009c003200010678005b
:100870000400e000b4003200f70720008780600029
:100880000170a0000500e000c0003200f707200062
:10089000878161000370a000050652000f003a0036
:1008a0000b50e1000b0032000308e10002003a00a7
:1008b0000200e1007e0032000204500083845800f0
:1008c000040031000001fd008101fd008402fd00f3
:1008d0008a05fd006044b800210037000520e100d2
:1008e00005003d000001fd008101fd008402fd00c6
:1008f0008a05fd00050652007a60e100050035001a
:100900000170a1004722dd00848070008a807000a1
:10091000630037006044b800ef02660007ff2f0055
:10092000070666000500e00006003400f0831200b0
:100930008714dd000511de00071bdd0006017100d4
:100940008519de007060e1000500350009047800bb
:1009500082047800030178008001eb0070065600e5
:100960000b50e10003003a00020040008380480081
:100970000400370060041400e0841c0002005800ea
:10098000838058000188a300060032008100d10056
:100990000080d3008984d3000884d3000402e800d7
:1009a000270037000178a30025003a000100e0008d
:1009b000030032008186cf00698656000a003700a6
:1009c0008c0020000000e00004003a0009007800dc
:1009d000880478000004eb00700252008086cf008b
:1009e0000d0646000c06e9007060e10006003500c7
:1009f0008000780009007800880478000004eb008b
:100a000070065600700252000c00e0000c0034002a
:100a10008c08dd00f00316000703de0086807000fe
:100a20000c00dd00074bde00060070008c4cdd0082
:100a30000743de00868474000c44dd000c02520083
:100a40006120e100200035006101600007002800fe
:100a500087816400f7ff2700878364000703740021
:100a60000300e0000600320082037300040032003d
:100a70000000e800e08048000188a3000e003a0072
:100a8000f70f20000720e1004a003d000170a1009f
:100a90004722dd00810072008a8070000000be00e5
:100aa0004f06be004f05be004f04be00000006000a
:100ab0006000b800faff37008100d1000080d30049
:100ac0000402e800eeff3700040178008901740099
:100ad000a10107008a807000f1ff3700f7010700cd
:100ae000070278000001fd008101fd00f30107000d
:100af00087027800850372000778a30004003200a3
:100b00000001fd008101fd0006020700e4ff37003f
:100b1000850362000768a300080032000b50e10063
:100b200003003200f0ff2f00f1ff2700dcff370049
:100b30000001fd008101fd00d9ff37000468a3001a
:100b4000d7ff3200faff3700f8ff270088836000e4
:100b50000b003a000000e00009003a008303640043
:100b600082837300020032000200be00ccff370017
:100b70000b50e100ceff3a000200be00c8ff370074
:100b800014002000810064003eff3700f8ff2700ba
:100b90008883610004003a000200e00002003a008d
:100ba0008c007800beff3700150020008301640030
:100bb00039ff370001f82700000020008100750090
:100bc000b7ff3700889fbe008a9fbe008c9fbe0083
:100bd0001b0020000202be000586680006002800f7
:100be000060666004709de00f20fb20082003200fe
:100bf0000243e80080003200c729de00f30fb20094
:100c00007d0032000343e8007b003200f107b200b0
:100c10000170a000f507b2000570a000c708dd0054
:100c20004903de00868070004700dd00c72add0032
:100c30004923de00868272004722dd000305510051
:100c40000403500085835800030031000000400079
:100c5000818048000a05e9008c1f78008a9fbe0049
:100c600004005000858058000402420085824a003a
:100c700000004000818048000005eb000004be0039
:100c80006033b8000406be000d48e1005600310094
:100c9000110009004dccd8000c01b8000d02b800bd
:100ca0008481410060824a008283530003045c0017
:100cb00084845c0060055d000a00e00025003a00c5
:100cc000800578000d40e10049003100880078007f
:100cd00007007800110009004d88d8000c01b80009
:100ce0000d02b8008481410060824a006003110057
:100cf00083835b0004045c00e0845c000900e00086
:100d000021003a004f01be000300e0002b0032003a
:100d1000e3016000070673008c817100010032005e
:100d2000640070004200de004e5edd000c007000ca
:100d3000c258de0001e0a00083010700cf01780067
:100d4000818071004f06be004f05be004f04be00fb
:100d5000000006008c8343000d044c00e0844c002e
:100d600060054d000000e9000a00e000d4ff3200f9
:100d70008c8343000d044c00e0844c0060054d0062
:100d80000000e900ceff37000c0343008d834b00c9
:100d900060044c00e0844c000000e9000900e00021
:100da000d8ff32000c0343008d834b0060044c00dd
:100db000e0844c000000e900d2ff37004200de0072
:100dc0004e5edd000c007000c258de0001e0a000a5
:100dd000cf0178000300e000daff3200600010006d
:100de000e0801800d7ff3700f0ff2f00aaff370080
:100df000f0ff2f00b9ff37000404be002f010700e9
:100e0000870678000004fd008104fd002b01070027
:100e1000078366000678a300030032000960a7007c
:100e20000800be002c0037000d78a300020032003d
:100e30000800be00280037000778a30026003a000b
:100e400001f0a10009f0a1000668a3000300320030
:100e5000f1ff2700f0ff2f00baff37000d68a30055
:100e6000030032000800be008c807000b5ff370020
:100e70000768a30007003a000648a30003003200f9
:100e8000f1ff2700f0ff2f00aeff37000d48a30051
:100e9000030032006000b8008c807000a9ff3700aa
:100ea0000748a3000400320001f8270000002000da
:100eb0008c807000a3ff3700760107000004fd005e
:100ec0008104fd0002057800720107000802be00df
:100ed0008a01780059ff37000160a000120220004b
:100ee0009241880097ff37000100e00012003200b5
:100ef0000500e00010003200889fbe008a9fbe00ff
:100f00008c9fbe000006eb0001f8a3000300320036
:100f100060001000e08018000cf0a00005f8a300ad
:100f20000300320060021200e0821a000cf0a200fe
:100f30008005eb0041ff37006000b80002000500ab
:100f4000038368000700280007036300470ade00e8
:100f50000480a100c71ade000580a100f70f200061
:100f60000720e100420032000728e1004000320083
:100f7000889fbe008a9fbe008c1f7800f107b200d8
:100f8000f307b2000400e000640032000170a0002a
:100f90000500e000680032000370a00085054200f3
:100fa000eb07b1000204b8000302b80084844400d7
:100fb00060854a00020ab800848444000a854a0019
:100fc000030ab80004054500040033000804d000fb
:100fd0008984d2000a85d2008b05e9006158e100be
:100fe0003d003500021020000901610003082000c7
:100ff00089816100f70720008783640008867300f9
:10100000c84cde00c853dd00878474004855de00fc
:101010000300e00006003200820376000400320084
:101020008904e80060054d000a88a3000c003a001e
:10103000f70f20000758e10044003d000a70a100ae
:10104000c75ddd000a8575008a007300090078001d
:101050004f0678004f05be004f04be00000006009a
:101060000a05d1008984d3008b05e800f0ff370022
:10107000881f7800060478009000070007027800b7
:101080000001fd008101fd008c000700870278004f
:10109000850372000778a300050032000001fd00ff
:1010a0008101fd009f0007004f047800000006004a
:1010b000850372000748a30003003200f0ff2f00f1
:1010c000f1ff2700f8ff37000000200001f827009b
:1010d00088807000f4ff3700880178004848dd0000
:1010e000808171004848de00c850dd0001007000ba
:1010f000c850de00060478000b01780016000700d7
:1011000088807000d2ff37000500e0000500320043
:10111000170020003a0007009dff37008103700090
:10112000f9ff3a00860078004f0678004f05be00b0
:101130004f04be000000050083037100f9ff320078
:10114000270020002e00070094ff370001f8270039
:1011500086807000f4ff37000100e00026003200b6
:10116000610111007810e10023003c006022b8000a
:101170007010e10004003500800278000100780062
:101180008000eb00700151000200e0000900340013
:1011900070031100062add00822ade008603dd00ce
:1011a000878272000200de00860bdd0007007000ff
:1011b0008208de0084817100f4ff2700048262004f
:1011c0008481710004002800848262006102600052
:1011d00005f0a6000000060004827100070032003e
:1011e0000000e800e0804800000006000002be00a9
:1011f0006000b800efff37006000b8000000060094
:10120000889fbe000004eb006138e10016003a0040
:101210000100e00008003a00c800de004800dd00e0
:10122000880020000100e00003003a00c800de0052
:101230004800dd00680444008184cf00e984540044
:10124000060034008908dd00f08314008703de0007
:10125000878070000900dd00090444006102140069
:101260004f04be00000006000300e00008003a0042
:10127000c811de004811dd00880020000300e000f6
:1012800003003a00c811de004811dd006804440084
:101290008384cf00e9845400060034008919dd00fe
:1012a000f08314008713de00878171000911dd00cf
:1012b00009044400e1021400e9ff37002700200080
:1012c00001f0a70017002000470bde00f60fb20068
:1012d000040032000643e8000a0032004702b3006f
:1012e0000000060001037800f607b2000603700054
:1012f00002003a000703b300000006008702b300b3
:101300000000060001037800f607b2000603700033
:10131000020032000770a000000006000760a00075
:10132000000006000478a300040032000578a30042
:10133000030032000168a30001003a000200be0071
:101340000160a0000000060081017000270032004b
:101350008002eb0001f8a3000300320060001000df
:10136000e080180015002000f4072000020242006f
:1013700020003400f70320008703600006042000eb
:101380000003630002082000000161004700de0046
:10139000c909dd0000807100c708de000600e0001a
:1013a0000800320087037100060032001000b00010
:1013b0000180b0000188a30002003200c108de00f5
:1013c0000402e800f107b200f30f20000320e1005f
:1013d00003003d004722dd00810072002900370034
:1013e00001f827000000eb00260037006000b8007d
:1013f00000000600680212007f20e10002003400b5
:101400006000b8001f0037006011b8007020e100d4
:101410000400350080017800010078008000eb00b6
:10142000700252000400e00009003400f0031200d2
:101430000719dd008419de000703dd0086817100d5
:101440000400de00070bdd00060070008408de00eb
:10145000f7ff2700838363008703710006002800dd
:1014600003036300070032000700e00003003a00b6
:101470006101600002817300020032001000b000c0
:101480000180b0000500a6000000060001f0a000e9
:10149000000006004f0ade004709de00f107b20037
:1014a000f20fb2000b003200f207b1000170a00091
:1014b000c708dd00c901de00838070004700dd0041
:1014c0000400a6000000060060001000e080180084
:1014d00000000600810f700001003a0000000600c5
:1014e0008182cf000500e00010003e008082cf0026
:1014f000ee8242007028e1000400390007003e003f
:10150000800078000000eb000e00370070831200ae
:101510008600de000500dd000a00370070835200ff
:101520008600dd000000eb0006003700e28252007a
:101530008508dd00708312000603de0086807000df
:101540000500dd007507b0000501ea000400a600f3
:101550000000060060001000e08018000000060097
:10156000881f7800030478000300e00007003d00b6
:1015700060001000e080180060011900e08119008f
:1015800002003b0001f02d000300370004000700bb
:1015900008f0a70001f0a0004f047800000006004a
:1015a000889fbe008a9fbe00008270000402710006
:1015b00004827100260032000004be000200be005a
:1015c0006011b8006b092000950220000182cf0055
:1015d0000a0039000541b1000082cf000700390040
:1015e0000541b1000982cf00040039000541b10076
:1015f0000882cf00010039000541b10005425200c8
:10160000120032000a003b00828171006101640017
:101610008100d1000080d3008984d3000884d300e6
:101620008b05e8000442e800f7ff3a0007003700a6
:101630000804440089844c00000048008180480070
:101640008b05e9000442e900f9ff3a0003000700b6
:101650004f05be004f04be000000060081002000c0
:10166000618055000b003d000b00200061fe2f0043
:101670000100e1001d0034008281710061016400fd
:101680008904d1000884d3000000e800faff3a0082
:10169000710020006100640003007000020060001f
:1016a0000900320061044400e0844c000988a50070
:1016b000050032008b05e8006808e10002003a00ee
:1016c0008904d1000884d300f20f20000258e10001
:1016d00005003d00c75ddd00f907b2008980750097
:1016e00008007800000006000bf827008b00780047
:1016f000000005000000fa0068815700cfb897008d
:10170000cf0307000080fa0000000600f301070085
:101710004b0207007f020700fb02070023030700bc
:101720001f040700ca033700800078001000200063
:1017300002022000828f500004003200e980500035
:10174000e48f5000010036000000eb0000000600ae
:10175000889fbe008a1f7800000578000a04780080
:10176000984478000805e8000900fb00eeff070038
:101770000000e000f9ff3a00b0c2b30080cf54008f
:1017800005003200d0c2b3008000eb0080cf5400cf
:1017900005003a00020037008000eb00010037002e
:1017a000110020000804e8000000eb0003003700ef
:1017b0006a02b900020052000003b0003801fb00c9
:1017c00003fd2f0082814100e98f5100f8ff3600b0
:1017d0000100e00001003a000000ea004f05780037
:1017e0004f04be00000006008001780002003700b0
:1017f000b15978000201e9000200e000fcff3a0064
:10180000000006000000e9008000eb00b0678800df
:10181000c167880000000600d2f2270053c92400e7
:10182000b0678000c1678000b20707006101400017
:10183000e0814800b2678800c36788004118de0075
:101840000100200000000600889fbe000004be00ca
:10185000080078000d0007000000440089007800af
:1018600003000700080078004f04be0000000600d7
:10187000881f7800000478000800780094060700ac
:10188000080078004f04780000000600800078000f
:10189000040037003104e00002003a00000051006b
:1018a00000000600010178000108a300f9ff3a00da
:1018b0008101780031017800f4ef2f00020242002c
:1018c0000281ea00020162000408280004016100ac
:1018d000f7ff320083007800010178003104e00056
:1018e000fdff3a000000510000000600881f78004c
:1018f00000047800080078009506070008007800ca
:101900004f04780000000600114290000482fb00a2
:101910009180fb00c808dd00048270008000780020
:10192000d181fb001081fb004811dd000301710033
:10193000030037004811dd001180fb000201700038
:10194000010078003104e00004003200840f5100ef
:10195000f8ff3a000000e900000006000000050062
:10196000114390008683fb00060020001181fb00dc
:101970008001eb00c811dd000200200002037300ab
:1019800083837300214190004811dd008001eb004a
:1019900002037300838373008080e800104190008d
:1019a0008281fb00020020001082fb008002eb001d
:1019b000c822dd000400200004017100858171004f
:1019c0001182fb004822dd008002eb00040171005f
:1019d00085817100080037001182fb008002eb0056
:1019e00004027100858271004829dd00c821de00f3
:1019f000830171004821dd00010078003104e0001e
:101a000005003200860f5100878f5900f2ff3a001f
:101a10000080e90000000600000005003141900050
:101a20000281fb008001eb001183fb008003eb00cf
:101a3000c833dd00060020000603710087837100b3
:101a4000114190008281fb0002002000020373001c
:101a500083837300214190004811dd008001eb0079
:101a60000203730083837300e30040001182fb00d4
:101a70008002eb001081fb008001eb00c811dd004b
:101a80000200200002017200838172001042900067
:101a90008482fb0004002000040171008581710034
:101aa000204290004822dd008002eb000600370053
:101ab000481add00c812de00850272004812dd00ff
:101ac0001181fb008001eb00020172008381720032
:101ad000010078003104e00005003200860f51005b
:101ae000878f5900f2ff3a006300500000000600a3
:101af000000005002802fa00889fbe008a9fbe00f1
:101b00008c9fbe0000047800810578000f0009005a
:101b1000001feb000e02b1000b0178008800780076
:101b20008004eb000d0037000080fb00c401de00e4
:101b30008381410003024700ef026000160020008d
:101b40008532dd00ee817900038a720086844400cc
:101b50000000400000004700091098003240780063
:101b60000004e00005003a001a0020000a00780096
:101b70000001eb008081eb00190037003104e00028
:101b8000e9ff3a00a200370003824500e4427800f2
:101b90006bc2780084cf520005003a008a0f5000d3
:101ba0000c0032000000e800820078000b003700d3
:101bb00084cf520002003600038550000600370033
:101bc0008200e800820178001a0020000a007800f4
:101bd00002003700000578001000200001017800a5
:101be00082004000898f5000e7ff3900110020007b
:101bf000010078000002eb008086eb001600370041
:101c00008d82450065437800eb427900854f530093
:101c100005003a00810f50000c0032000000e8007f
:101c2000040178000b003700854f5300020031009b
:101c30008d005100060037000401e800840678009a
:101c400011002000010078000200370080007800b9
:101c5000100020000202780004014000890f5100aa
:101c6000e7ff39000d01e8000300e800800f510094
:101c70000200360001057800010037008306780075
:101c80000d02e8008a804500040178000b0078000e
:101c900034179a001c0507003e1292000000e00075
:101ca000080032000905e9000d0555008d0f5500ab
:101cb000010031000d0578000a05e8008002eb0004
:101cc000010037008a825400880178000006eb008a
:101cd00008805100890f5000160031000903780078
:101ce000f603b300060178008000eb0003007800e3
:101cf00003179a0034179a0015179a0026179a00ae
:101d0000d10407008e1192003e1292009e129200a2
:101d10002e1392000000e000050032008800500001
:101d2000898f50003a0039008001780001003700a7
:101d3000868141008900440071f897000080fb0013
:101d40006f01600017002000823bdd004401de00cf
:101d5000020141006e037900068163000d0032002c
:101d60000000400000004700001090000080540078
:101d70000a0032000500e000150032000c00e0000f
:101d8000130032008a0f5000110031000a80540005
:101d90000f00370001047800ccff37000c007800fa
:101da000840f560003003100040078000100370062
:101db0000000e800eb4078000104e000060032007b
:101dc0006841780082cf5000f9ff32000d005000ca
:101dd00000044400bdff37000d0078008000e800db
:101de0008c8f5000080036006b417800e840780086
:101df0000000e900814f5100f8ff32000a0444005e
:101e000005067800b2ff37000800780001003700af
:101e10000000eb004f06be004f05be004f04be00a1
:101e20000080fa0000000600881f78000104780096
:101e3000984078000104e000260032008100fb0099
:101e4000780507000000e000220032009840900072
:101e50000104e0001f003200904090000104e00007
:101e60001b003200a84090000104e00003003a008b
:101e700088007800a4fe070016003700a0409000fc
:101e80000104e00012003200b84090000104e000bc
:101e900003003a0088007800b1fe07000d0037000b
:101ea000b04090000104e00009003200c8409000fa
:101eb0000104e00003003a0088007800d7fe070024
:101ec00004003700880078000aff0700010037008f
:101ed0000000eb004f04780000000600ec8747008c
:101ee000889fbe008a9fbe008c9fbe008e1f780018
:101ef000000678000104780018079000280590007b
:101f000098067800cdb79f00b80590003202be0059
:101f10002203be000400be000601be004f18de0012
:101f20006011b8008000eb00d0b79f00e1b79f00c0
:101f3000f2b79f0083bf9f00800478000900e00093
:101f4000060032006000b8006011b80004025000c2
:101f50008582580006035900878359000e00e0006f
:101f6000020035000d10a100cdb79f000900e00070
:101f700005003a004fb097000028a30002003a0085
:101f80000038a300020032008a00e9000100370097
:101f90008a007800f8815700a2002000080078002d
:101fa000860007000900e00003003a00cfb0970068
:101fb0000128a300080032000000e900008145006c
:101fc000b1c2b3000900e00001003200d1c2b30089
:101fd00001497800050037000138a30003003200f2
:101fe0000000e90001c2b30081757800480190004b
:101ff0000201e90000015100808045004fb29700c6
:102000008a0178000c007800300207009c009000e4
:102010000188a3000400320098009000810f500056
:1020200001003d00010078004f0778004f06be0018
:102030004f05be004f04be00cf00b10000000600f7
:102040000200fa00889fbe008a9fbe0080057800cb
:102050000104780002007800180190002805900023
:1020600098007800b1bf9f00b80490000200e00023
:10207000020035000110a100b1bf9f00ea815700a6
:10208000820020008a0078003002be002003be00db
:1020900008007800490007003fb99700f000610090
:1020a000030032000000e90001c3b300817478002e
:1020b0003fb99700e8006100030032000000e9002a
:1020c00001c2b30081747800480190000201e90068
:1020d00000015100808044003fba97008a017800d7
:1020e0000b007800f90107009b0090000188a30015
:1020f0000400320098009000810f500001003d0064
:10210000010078004f05be004f04be000080fa00b9
:1021100000000600ea874700889fbe008a9fbe0035
:102120008e1f780000047800030078007287570043
:1021300084e2260055c72600049fbe00c3962200f5
:10214000030f78006c875700004feb0011059000db
:10215000a1049000910578000200e0000200320026
:102160000207780001003700728757000000e00086
:1021700002003a000e007800c4fd07000a00e000eb
:10218000030035008a0f5000010036000a00780075
:102190000b02780089017800000178008e00780039
:1021a00008007800c90107004f0778004f05be00fe
:1021b0004f04be00af00b10000000600f4874700e6
:1021c000889fbe008a9fbe008c9fbe008e1f780035
:1021d0000605be000404be0081bf9f0082b79f00b9
:1021e000f3b79f00b0009000e1b79f0013017800a3
:1021f00092b79f0090069000400090000000e90018
:10220000000678000d00e00001003d001d002000e8
:102210008040eb00efb19700817178001e00200034
:102220001f0037000c06e9000fb09700cf80de00da
:102230006109b900a0b79f00b1b79f00c2b79f0066
:10224000d3b79f000203be000002be000800be001c
:102250000a01be00cd050700000778000e40780097
:102260000043b000efb0970080707e008d06e9005b
:102270000fb997000201e90082bf9f002fb29700bb
:10228000bfb297004fb39700dfb397000800be00be
:102290000a01be00b60507000205be000004be002c
:1022a0000c00e0000d003400e00f5400e08f5c00f3
:1022b000e00f5d00e08f5d00daff3a000d00e00006
:1022c000d8ff3c008fb997000300e0000300340002
:1022d0001fb097000018a300d2ff3a000e00e000e4
:1022e00002003a00ffb097001140a1000c007800f6
:1022f0004f0778004f06be004f05be004f04be00da
:102300004f01b100000006000200fa00889fbe00e5
:102310008a9fbe0000057800010478000200780062
:1023200018019000a804900098007800b1bf9f00a9
:10233000b80590000200e000020035000110a10085
:10234000b1bf9f00ea815700a200200089007800f9
:102350003002be002003be000800780097ff07008f
:10236000480190000201e900000151008080450011
:102370003fba9700890178000a00780053010700ee
:102380009a0090000188a300040032009800900099
:10239000810f500001003d00010078004f05be0094
:1023a0004f04be000080fa0000000600fa874700d4
:1023b000889fbe008a9fbe008c9fbe008e1f780043
:1023c00080047800010478008205780018019000ec
:1023d0002805900018077800b80090000200e0007f
:1023e000020035000e10a10001003700120020008d
:1023f00070006700e0b79f00090032003b02be009a
:102400002b03be00e00f5200e08f5a00e00f5b008c
:10241000e08f5b00020032008a86e900010037008d
:102420008a067800e8026700f5b79f0001003200d5
:102430008d06e9003b02be002b03be00e4af9f0007
:10244000f5af9f0086b79f0097b79f0048069000a2
:102450000c06e9000040eb0080707e00efb29700b0
:102460007fb297008903780081047800d8af9f007d
:10247000020478008bbf9f008a057800034578002e
:102480002a0037000c06e9006fab97006f0063006d
:10249000e90f500002003c000003b00001003700cb
:1024a0007005b0000a03fb001604b100f90f5300d9
:1024b0000c003e00000378000650a0001606b10094
:1024c000f90f530007003e00b4b79f00a5b79f0067
:1024d000c7b79f000f040700cfb39700afb29700b4
:1024e0003fb2970080747e000804e9008d06e90081
:1024f0006fa89700ffa897000fb197009fb19700b2
:10250000460020008301d1000281d3008180d300e6
:102510000080d3000603e900faff3a00e0af9f0015
:10252000f1af9f0082b79f0093b79f00e10f560065
:102530000f0034006fa89700ffa897000fb1970015
:102540009fb19700e00f5000e08f5800e00f590056
:10255000e08f5900cbff3a000800e000c9ff3c00c3
:102560000d00e000020034000e18a300c5ff3a0081
:1025700089007800f4b79f00870478005fac97006b
:102580008a4178000b0578008fbd97000500e000b8
:10259000100032003b02be002b03be00e4af9f00e0
:1025a000f5af9f0086b79f0097b79f00e00f5200de
:1025b000e08f5a00e00f5b00e08f5b000500320007
:1025c0000c06e90083707e000c06e90000c3b3002e
:1025d00080707e00ffb297000500e000030032002b
:1025e0000c06e90000c2b30080707e004801900034
:1025f0000201e9000c0151008c8040000e027800bd
:102600008a01780009007800b00007009900900066
:102610000188a3000400320098009000810f500050
:1026200001003d00010078004f0778004f06be0012
:102630004f05be004f04be00af01b1000000060010
:102640008201780001017800f1ff2700b80337000c
:1026500084082000848f50001d0032000d003c00d3
:1026600014082000848f50002700320002003c0034
:10267000040820000400370024082000848f500044
:102680003400320044082000848f500043003a0098
:1026900036003700040a2000848f500027003200e3
:1026a00004003c0004092000848f50003b003a00e5
:1026b00028003700020c2000828f50002f003200cb
:1026c000020f2000828f500034003a002b003700a8
:1026d0009380e9000200e0000500320081097800e3
:1026e0001102fb00cfa2de00612bb90028003700e9
:1026f00081097800114278000482fb008002eb001f
:102700006033b8002200370013027800e400520062
:102710000200e00005003200810978001102be00cd
:102720004fabde008603780019003700810978007e
:102730001102be006033b800150037009380e90035
:102740008109780011027800cfa2de00612bb90068
:102750000f00370093027800e8805200810978006a
:102760003102be002103be00090037009380e9005a
:102770000200e00002003200f1ff37009380e90020
:1027800081097800110278008002eb006033b80004
:102790000498be000690be00100005000000050071
:1027a00044082000848f50002500320008003c00bf
:1027b00014082000848f50001400320024082000e8
:1027c000848f500024003200040820000c003700e1
:1027d00004092000848f50001f00320004003c00d8
:1027e00084082000848f500024003a000e00370037
:1027f000040a2000848f500011003200040c2000d5
:10280000848f50001d003a000d0037009380e900ce
:10281000810978009100780001087800cf91de00ee
:102820008288be00140037009380e9008109780097
:102830009100780001087800824878000e00370087
:102840009380e90081097800910078000108780000
:1028500082087800080037009380e9008109780039
:1028600091007800010878006112b900612bb9006d
:102870008498be008690be00100005000000050090
:10288000889fbe0000047800480090008204780011
:10289000808f540001003600800478000901780020
:1028a00058009000d0fb070058009000090040003d
:1028b00050049800c8009000898450004904980092
:1028c0000048eb004f04be0000000600f2874700fe
:1028d000889fbe008a9fbe008c9fbe008e1f78001e
:1028e00080047800010578000204780083057800f0
:1028f0006107620002003a008b0f540008003900a3
:10290000080178008a00780009007800dcff0700e1
:102910008b0f540002003900880578001e00370034
:10292000088655000c017800f00f560001003600b3
:1029300002012000010220007e80570000020700f3
:102940008c0678000500370002012000fe80570049
:1029500009007800caff0700f0865600ef8f560086
:10296000f9ff3e004461de0000ff2f000091b90036
:1029700002014600fe80570009007800c0ff0700f2
:102980000e00e00004003a00080178008a00780098
:1029900009007800baff07000b0078004f077800a5
:1029a0004f06be004f05be004f04be002f01b10010
:1029b0000000060000000500000005000000050002
:1029c000000178000040eb008080fb008180400027
:1029d00003ce200063c278000404e00003003a0044
:1029e00010ce200060c07800000006009201780040
:1029f000934f520004003a0010ce200060c07800cf
:102a00000309e800010037000040e800ea4f5000e9
:102a1000edff360000000600f6874700889fbe00e5
:102a20008a9fbe008c9fbe008e1f78000005780034
:102a30000104780083057800040678000000eb00ac
:102a4000c0b79f008080eb00d1b79f00e0b79f0028
:102a5000f2b79f000008200080bf9f009800780018
:102a6000010078008004eb00010037008904e800d1
:102a7000304178000204e0000300320053c2b3008a
:102a8000834f5100f9ff3a000900e00004003200d2
:102a9000090178000a00780079ff0700188c4400cb
:102aa0001807780050c2b3009e4f10003f013a0053
:102ab0000e07e8000e0c780010003700cfb097002a
:102ac0000100a0000b003700cfb097000110a0005c
:102ad00008003700cfb097000120a00005003700a4
:102ae000cfb097000130a00002003700cfb09700b0
:102af0000140a000c1b79f00000ce800180078005a
:102b000090407800b2c2b30082cf5000f1ff320093
:102b100007003c0002c2b30082cf5000f0ff320039
:102b200032c2b30082cf500007003a00efff3700f7
:102b3000d2c2b30082cf5000e0ff320002c3b30024
:102b400082cf5000e0ff3200a2c2b30082cf50001b
:102b50000d003a00000ce8001c80e900000e78002f
:102b600010007800e0b79f000000e0000f003d007b
:102b7000cfb097000100a200c1b79f000000ea009b
:102b8000e0b79f0009003700f1fa0700e0b79f00a7
:102b900001003700000ce800180078009000fb00ee
:102ba0000103b100e98f5000faff36004fb09700e3
:102bb0000008a300020032000010a100c0b79f006f
:102bc00018007800e1c2b30090cf100016003a0060
:102bd0008000eb00d1b79f000000e800000c7800f7
:102be000a1c2b30090cf100006003a00000ce8002c
:102bf0001c80e900000e780010007800d0b79f001c
:102c000009003700d2fa0700d0b79f000100370053
:102c1000000ce800180078009000fb000103b100f0
:102c2000e98f5000faff36000800780064ff0700c3
:102c300080467800180078001000fb002e02070084
:102c400091062000810f50003800320012003c0035
:102c500041062000810f5000340032000a003c0081
:102c600011062000810f50002000320031062000a4
:102c7000810f5000a000320051022000810f50004f
:102c8000bc003a00b400370071062000810f5000ec
:102c9000b8003c008800370001072000810f500079
:102ca0005c00320007003c00e1062000810f50006c
:102cb0007a003200f1062000810f5000ad003a008a
:102cc0003900370051072000810f500027003200e3
:102cd00081072000810f50004200320031072000a0
:102ce000810f5000a3003a008f0037008d80fb0059
:102cf0000c01780000fe2f000f0040003102070099
:102d00000000e000a800320018007800000ce80085
:102d10009041780002fe2f000f014100f88057001b
:102d20000a00780024ff07000e0037008d80fb00aa
:102d30008c0178001200200000fe2f000f004000e0
:102d400043fe07000000e00097003200180ce80086
:102d500002fe2f000f014100f88057000a007800a2
:102d60005efc070080844400900037008d80fb00eb
:102d70008c0178000001eb0000fe2f000f004000e6
:102d800033fe07000000e00087003200180ce80066
:102d900002fe2f000f014100f88057000a00780062
:102da00059fd0700efff37008d80fb008c01780094
:102db0000001eb0000fe2f000f00400024fe070082
:102dc0000000e00078003200180ce80002fe2f003e
:102dd0000f014100f88057000a00780098fc0700b6
:102de000e0ff37008d80fb008c0178000001eb00d4
:102df00000fe2f000f00400015fe07000000e0005d
:102e00006900320018007800000ce800904178005a
:102e10001c0037008c0178000001eb00010f20003e
:102e200000fe2f000f00400009fe07000000e00038
:102e30005d003200180ce8000fb097009fb09700bb
:102e40002fb19700bfb19700e00f5000e08f5800fe
:102e5000e00f5900e08f590009003a00cfb5970004
:102e60006fb4970080cd200088fa07000b0278002d
:102e7000880178000001780081cd200047003700ec
:102e800083c7b30002fe2f000f014100f8805700f6
:102e90000a00780045fd0700b2ff37000b814400af
:102ea0008d80fb008c01780000fe2f000f00400099
:102eb0003bfe07003c0037008d80fb000c017800d2
:102ec00000fe2f000f004000be0107000000e000e0
:102ed0003500320018007800000ce80090417800be
:102ee00002fe2f000f014100f88057000a00780011
:102ef000b1fe07009bff370000c8b30080cf56002b
:102f000029003a00180ce8001c80e900000e780047
:102f100010407800e0df9f0013002000e2fd2f004a
:102f20000f0141000800370000c8b30080cf5600f1
:102f30001d003a00180ce8001c80e900000e780023
:102f40008001eb0010017800f88057000a0078003b
:102f500070fc070083ff370000c8b30080cf560025
:102f600011003a00180ce8004fb29700efb197003b
:102f7000080037000e0c78000000eb00c0b79f007f
:102f8000e0b79f000080eb00d0b79f000002eb008d
:102f90008401780012002000e1cd20000a007800b2
:102fa0004afe07006fff3700180ce80009007800a0
:102fb0004f0778004f06be004f05be004f04be000d
:102fc0006f01b100000006008200fa00889fbe0079
:102fd0008a1f78000005780082047800c13f9f00b6
:102fe0000004eb0010003700090278008801780027
:102ff000a2f72f000f01410081f72f008f804000c2
:103000000a00780084fe070008004000880f500086
:1030100004003d00b0042000d06788000084eb006d
:1030200004003700000478004f3897001004e000d7
:10303000edff3a00080078004f0578004f04be000d
:103040000080fa00000006008180fb0001003700cc
:103050000201e900800178000008a30006003200a8
:103060000200e000230032003082fb00810f52009a
:10307000f7ff3a00030037000000eb000200e00019
:103080001e0032001380fb00810f50001c00320034
:1030900014102000048ab90084027800010037006f
:1030a0000281e90003007800e10f51000a003600b8
:1030b00033826a00f6ef2f00040343000482ea0023
:1030c000040263000608280006026200f4ff3200d2
:1030d000010037000201e900800178000200e000f1
:1030e000050032003082fb00810f5200f9ff3a00e8
:1030f00003003700000005000000eb0000000600a0
:103100000300780000000600010037000201e9001a
:103110000200e0000500320030427800b141780042
:10312000834f5200f9ff3200010037000000050014
:103130000480fb008381fb000300500000000600b8
:10314000889fbe008a9fbe00800478000200e000d5
:103150005b00320001407800814c7800828144009d
:10316000f1f99f00e20f510055003600914498009c
:10317000a1449800e1f99f00d1f99f00e60f5100aa
:103180004f003600b1449800c1f99f00e80f51008c
:103190004b0036000905ea00630565000a84440017
:1031a0000a055100c1ff2f00010565000080fb00ea
:1031b0008000eb0012102000131020004d010700ca
:1031c000008cbe000a01440060b99f0071b99f00e5
:1031d000e80f55003a0036002004980031049800aa
:1031e000400498005104980020b99f0031b99f0015
:1031f00040b99f0051b99f00f80f550030003600cc
:103200006004980071049800000c9800110c98005c
:10321000200c9800310c9800400c9800510c98003c
:1032200020b19f0031b19f0040b19f0051b19f007c
:1032300060b19f0071b19f0000b99f0011b99f005c
:103240006401640078014100020444000205550055
:103250006011b8000203be000002be000403be00fd
:103260006022b800000072008180720002017300c9
:103270008381730010003700009cbe000294be00e2
:103280004004980051049800620498007304980068
:10329000000c9800110c9800220c9800330c980038
:1032a000400c9800510c9800620c9800730c980028
:1032b0000a02b1000802b000ff0f5500eeff3e0009
:1032c000090078004f05be004f04be000000060054
:1032d0000101780080017800008268000408a300e2
:1032e0000500320013003700324078008059780022
:1032f0000004e00014003200030278000208a3007a
:10330000f9ff3a0003007800010037000318780045
:1033100082007800b2017800f5ef2f00838242002e
:103320000382ea00048262000508280005026200a8
:10333000f6ff320000027800314178000258780030
:103340000204e000fbff3a000400780000000600e1
:10335000881f780081017800000278008082680070
:103360000508a30002003200210037000201e90035
:1033700003007800040478000308a300070032006b
:103380000200e00021003200b3407800015a7800ca
:103390000104e000f5ff3a00020037000200e000ff
:1033a0001a0032001004e00003003a001700370052
:1033b000031c78000281e90080007800e10f5100d1
:1033c00008003600b0017800f5ef2f00838242003c
:1033d0000382ea00048262000508280005026200f8
:1033e000f3ff320008007800010037000201e90015
:1033f000000478000200e00004003200b1417800cf
:10340000035878000304e000f8ff3a008000eb0066
:10341000080078004aff0700080078004f04780091
:1034200000000600881f78000104780088007800fa
:1034300005000700904f1400010032000000eb006f
:103440004f04780000000600881f78000004780010
:103450008180fb000a003a00080078000bf90700a1
:1034600000004400220037001804e0002000320071
:103470000804e8001081fb00810f51001c0032009d
:10348000080078000808a300f7ff3a001410200095
:10349000048ab9000801780038007800f5ef2f00a1
:1034a000808242008081ea00838262000308280053
:1034b0008382620007003a0000006a00f5ef2f00e7
:1034c000808242000080ea00008062008301600088
:1034d000f0ff3200020078001204e0000400320025
:1034e0000201e8009081fb00818f5100f9ff3a0052
:1034f0004f04780000000600f1fb2f0080804000a0
:10350000f98f500001003e000050a00000000600ae
:10351000f9ff3700f1f92f0080804000f98f50004b
:1035200001003e00f005b20000000600f9ff370080
:10353000f28747008e1f78000202780003017800ae
:103540000000e000020032000007780001003700b0
:10355000728757008002eb000100e000010032009a
:103560008102e90070805700060009000018eb0096
:103570000080eb0080bf9f002310200093bf9f00be
:10358000aebf9f00b1bf9f00c5bf9f000100e0001c
:1035900003003d00b1042000d16788000600370019
:1035a000004feb00eebf9f00debf9f00840078005d
:1035b00070805700220007004f0778002f01b100ec
:1035c00000000600881f7800000478000008200032
:1035d000808f50001700350010082000808f5000a9
:1035e0000b00340030082000808f500011003a009a
:1035f0009200780068805000000978003002be0018
:103600002003be00049cbe000694be0007003700e5
:103610009202780064805200000978001000be0019
:1036200015000700009cbe000294be0010002000a0
:10363000010037000000eb004f0478000000060096
:103640000200fa00881f780000047800e2bf9f00a3
:1036500064815700080078005bfe07009800900026
:103660000148a300010032000080eb004f04780005
:103670000080fa0000000600810378004ef4070085
:103680000001be006000b8000478a30013003a00f7
:103690006220e10015003e000d0039008301d100d9
:1036a0000281d3008180d3008301d1000281d30045
:1036b0008180d3008301d1000281d3008180d300b7
:1036c0000538b000c42add00f300b2008381720027
:1036d00007f0a70003f0a0000000060083ff27000a
:1036e000020020006110b900f9ff370003ff270036
:1036f000f7ff3700020ab900001bb9000200b8004a
:10370000810042008100430000000600889fbe0047
:103710008a9fbe0030044200b0844a0030054b004e
:1037200090854b006000b1000898be000a90be0072
:103730000440e10005c8e10006d0e10007d8e1003f
:1037400002003100680040001008e8004f05be008c
:103750004f04be0000000600889fbe008a9fbe0086
:103760003004be002005be000418540005985c001b
:1037700006185d0007985d00110020000440e1007c
:1037800005c8e10006d0e10007d8e10001003900da
:103790008000eb00108810004f05be004f04be00f3
:1037a000000006001200fa00889fbe008a9fbe003b
:1037b0008c9fbe00e0b79f00f1b79f0082bf9f00c3
:1037c00093bf9f000605be000404be000000eb008e
:1037d000d0b79f00c0b79f00b0b79f00a0b79f00b1
:1037e00090b79f00000678005fb19700cfb09700b8
:1037f000820141003fb097000200e00004003d005c
:10380000370007007e805700c0ff07000300370025
:10381000330007007e805700cfff0700dfb6970018
:103820000d00e0000c0035006fb29700ffb297006a
:103830000fbb97009fbb97001000200001002000e5
:103840006011b800000272008182720002037300ee
:10385000838373001b0007000c06e80001042000ae
:10386000810f5600e0ff3a000d00e00004003d002b
:103870000802be000a03be007e805700a3ff0700b7
:103880005fa897000000e00005003a001fb2970013
:10389000afb297003fb39700cfb39700090007007e
:1038a0006fb09700ffb097000fb997009fb99700ce
:1038b0004f06be004f05be004f04be000080fa0058
:1038c000000006000100070000000600a4b79f00ea
:1038d000b5b79f00c6b79f00d7b79f00000006008e
:1038e0004f09de0082817100b3b79f004f01de00f7
:1038f0008180400082807000a1b79f008fb0970048
:103900004f09de00000040000200700090b79f00e9
:103910007fa897004f01de00818040008280700008
:1039200081b79f000d0007004f3ade000000400005
:1039300004007000f0af9f0008000700040242007e
:1039400085824a0006034b0087834b00dfff070098
:103950000802be000a03be00000006002fb2970056
:10396000bfb297004fb39700dfb397000000060087
:10397000881f780018002000881f780089ff070042
:103980008f87e9004f04780000000600801feb00dd
:1039900084ff07008f87e90000000600889fbe00b3
:1039a0008a9fbe00e00f5000e08f5800e00f5900e2
:1039b000e08f59000c003d006044b8006055b8002d
:1039c0000000540081805c0002015d0083815d0085
:1039d000180020001500070008003d00180007002f
:1039e0000004eb00050037000004eb000f000700a7
:1039f00002003d001200070018002000dcff070055
:103a00000800e000060032006022b8006033b80011
:103a10000000520081805a0002015b0083815b003c
:103a20004f05be004f04be0000000600e00f52002c
:103a3000e08f5a00e00f5b00e08f5b0000000600a3
:103a40006044b8006055b8000402540085825c00f0
:103a500006035d0087835d0000000600889fbe00ae
:103a60008a9fbe008c1f7800e00f5000e08f580046
:103a7000e00f5900e08f59000d003d006044b80090
:103a80006055b8000000540081805c0002015d00b8
:103a900083815d001c0020000820e10009a8e100ee
:103aa0000ab0e1000bb8e1000d003d00080037004e
:103ab0000006eb00e00f5200e08f5a00e00f5b00c1
:103ac000e08f5b0006003d006044b8006055b80020
:103ad0000402540085825c0006035d0087835d005c
:103ae000aaff07000c00e000060032006022b800c8
:103af0006033b8000000520081805a0002015b0070
:103b000083815b004f0678004f05be004f04be0066
:043b100000000600ab
:020000040000fa
:103b14002c00000000250000733000007825000010
:103b240030320000580000004e4f00004e450000a7
:103b3400002c00002e2e00002e0000005365000013
:103b44006d200000416e0000616c00006f67000092
:103b5400202000000058000025750000200000000f
:103b64005925000064430000200000005a2500008d
:103b7400752000004c75000078000000414c0000e6
:103b84004552000054210000205600003a25000050
:103b940064000000536500006d20000044690000cb
:103ba40067690000746100006c20000000360000aa
:103bb4003a25000064200000003700003a25000088
:103bc40064200000004200003a2500006420000048
:103bd400005600003a25000064000000202a00007e
:103be4002a2a0000205000004152000054590000cd
:103bf400202000002a2a00002a20000000200000c3
:103c04002a2a00002a2000004d4f000044450000ed
:103c140021210000202a00002a2a000020000000a0
:103c24004975000072690000204d00006f630000b8
:103c340061730000005200006166000061650000cd
:103c44006c200000536900006c76000061000000e5
:103c5400546f00006d61000073200000486f000085
:103c640072740000610000004e3a0000203600002b
:103c74003239000030370000004e00003a200000c6
:103c84003632000039360000360000004e3a00009b
:103c940020370000333500003633000000200000d8
:103ca4005472000061620000616c0000686f0000e3
:103cb40020640000652000005341000044200000ff
:103cc40000200000204300007269000061640000cd
:103cd4006f200000706f0000723a00002020000086
:103ce4002000000062000000447700000053000040
:103cf4003000000053310000005300003200000087
:103d040076000000417800000041000079000000c6
:103d1400417a0000005300004430000000530000ca
:103d24004431000000440000360000004437000025
:103d340000440000420000004456000000700000ef
:103d4400006100006c65000072740000006e0000e9
:103d5400002c00002000000022000000223a000095
:103d64005b000000256400002573000000250000ae
:103d740075250000730000005d0000007b0000005a
:103d84007d0d00000a00000041200000496e000083
:103d9400696300006961000072200000536900003b
:103da40073740000656d000061000000457300003d
:103db40074610000646f00003a2000004174000048
:103dc400697600006f0000002d2d00002d2d0000ed
:103dd4002053000069730000746500006d610000e9
:103de400204900006e69000063690000616c0000f6
:103df400697a0000616400006f2000002d2d00002e
:103e04002d2d00000d0a0000007b0000227300002d
:103e14007461000074750000732200003a220000ef
:103e2400636f00006e660000696700005f75000044
:103e3400706400006174000065640000227d00006d
:103e44000d0a000000530000746100007475000046
:103e5400733a0000204300006f6e000066690000a2
:103e640067270000640000007b220000616c0000f2
:103e740065720000742200003a2200007468000099
:103e840072650000736800006f6c0000645f0000de
:103e94007265000061630000686500006422000030
:103ea4002c200000227600005f760000616c000088
:103eb400223a0000256400007d0d00000a00000085
:103ec4005374000061740000757300003a20000010
:103ed400414c000045520000542100002020000005
:103ee400005300007461000074750000733a000010
:103ef4002041000063740000697600006520000022
:043f04002000000099
:020000040000fa
:103f08000000fa00aec4a900aee4a900af44a900bd
:103f18000080fa00000006000200fa0000e2240017
:103f2800000f7800060037001e0fe9001e00780019
:103f38000000e00002003a000000eb000a00370031
:103f4800502580007f0060000000e000f6ff3a0086
:103f58007125800000002400008060000000e0005f
:103f6800f1ff3a00100020000080fa00000006006f
:103f78000600fa00100798002107980000e22400c4
:103f8800000f7800060037001e0fe9001e007800b9
:103f98000000e00002003a000000eb0007003700d4
:103fa8001e009000900078002e00900000806000b5
:103fb8000000e000f4ff3a00100020000080fa0042
:103fc800000006000200fa00abe4a9006246a9005e
:103fd8006266a8000000eb00000f78000d003700b3
:103fe8006646a9008002200001002000730907002e
:103ff8006646a80080022000010020006f09070023
:1040080020338000680060000000e00005003a00ee
:104018001e0fe8001e007800e80f5000f0ff340083
:1040280001003700000000006246a8000080fa0086
:10403800000006000000fa007c21a900abe4a900fa
:104048002228ef00dfff07006246a8006266a8008a
:104058006846a8006866a800aa24ef00ac24ef0010
:104068007002200040258800a5ff0700ae24ef005d
:10407800ab24a800abe4a800100020001041880081
:1040880000e22400010020004c0907000080fa002b
:10409800000006000000fa009fff07000000e00093
:1040a80002003a000000eb000500370094ff07000b
:1040b800aa04a80011002000a04a2000acff0700b5
:1040c8000080fa00000006000200fa0000e2240066
:1040d800000f7800aa44a800060037001e0fe90068
:1040e8001e0078000000e00002003a000000eb002b
:1040f8000500370050258000640060000000e000e3
:10410800f6ff3a00100020000080fa0000000600c8
:104118000400fa002047980000e22400000f78000d
:104128007dff07000000e00002003a000000eb00fd
:104138002f0037002e4090000080fb0030258800bb
:10414800060037001e0fe9001e0078000000e0009e
:1041580002003a000000eb002500370070258000bf
:10416800610060000000e000f6ff3a0000e2240071
:10417800000f7800060037001e0fe9001e007800c7
:104188000000e00002003a000000eb0018003700d1
:104198007125800000002400008060000000e0001d
:1041a800f5ff3a00712580000008200000806000bb
:1041b8000000e0000a003a0071258000004020005d
:1041c800008060000000e00005003a0071258000d2
:1041d80000002800008060000000e00003003200ba
:1041e80047ff07000000eb00010037001000200027
:1041f8000080fa00000006000600fa001007980088
:104208002107980000e22400000f780042ff070011
:104218000000e00002003a000000eb003100370027
:10422800aa64a800060037001e0fe9001e007800e7
:104238000000e00002003a000000eb00290037000f
:1042480070258000620060000000e000f6ff320088
:1042580020258000804078001e00900001487800ea
:104268002dff07000000e00002003a000000eb000c
:104278001c0037002e00900000f0a7000000ea00a4
:104288000000ea004f00de00004078000080fb00dc
:10429800610060004500dd00512580000150a1004b
:1042a8000100700050258800aa84a80000e22400bc
:1042b800000f7800060037001e0fe9001e00780086
:1042c8000000e00002003a000000eb0005003700a3
:1042d80050258000700060000000e000f6ff3a0002
:1042e800100020000080fa00000006000c00fa0010
:1042f800400798005107980066ff07000000e0009b
:104308004500320000c9b30081ff07000000e0004b
:1043180043003200c0cab3007dff07000000e00080
:104328004100320068ff07000000e0004000320052
:1043380000e2240001002000a008070055ff070044
:104348000000e0003c00320010c9b30070ff070015
:104358000000e0003a0032000000eb00000f780097
:104368000f0037001e0078000020a20000f0a70010
:104378000000ea000000e9004f00de009e0078001f
:104388000e81e800010141008000780002007800f9
:1043980099ff07000000e0002b0032001e0fe80024
:1043a8001e007800e40f5000eeff340046ff0700bf
:1043b8000000e00026003200ae40900000c4b300c8
:1043c80080cf5000020032000000eb0024003700cc
:1043d8003e4090000080fb00c800dd004e40900089
:1043e8000080fb00810070004e00900001087800fa
:1043f8005e4090000080fb00c800dd006e40900029
:104408000080fb00810070005e00900001087800c9
:104418001000200012003700000000000d003700d7
:10442800000000000b003700000000000900370002
:1044380000000000070037000000000005003700fa
:1044480000000000030037000000000001003700f2
:1044580000000000aafe07001bff07000000eb0099
:104468000080fa00000006000600fa001007980015
:1044780021079800104180000000e00001003a0088
:10448800ecfe07000000eb00000f78000c0037007e
:10449800ae0090001e00900094ff07000000e000ae
:1044a800020032001000200009003700e1fe07007a
:1044b80000e2240001002000400807001e0fe80069
:1044c8001e007800e20f5000f1ff34000000eb00fe
:1044d8000080fa00000006000400fa002047980057
:1044e8000000eb00000f7800eafe07000000e00083
:1044f800040032002e4090000040400004ff0700f6
:10450800000f7800f0fe070000fa200001002000ec
:104518002a0807001e0078000080fa000000060044
:104528001400fa00000f9800110f98000000eb002b
:10453800100798000000eb00200798001e08900064
:104548000000e00002003a000000eb0054003700d1
:104558000e0890008040eb000148780080c0b3004e
:10456800004f78002900370065fe07001e407800dc
:10457800d9ff07000000e000230032000e08900079
:10458800c0f40700300798001e81fb001e00900051
:104598000000e00002003200a0d829000100370026
:1045a800c0d82900e8004700821f7800801f7800e3
:1045b800d0d82900801f7800010078004bf407004c
:1045c800e687570068004700aef40700be00900079
:1045d800810040001e089000808f500005003100c7
:1045e80068004700800078000e08900094f40700e7
:1045f8000200370010002000200798001e009000dd
:104608000000e800100798001e4fe80070c7b300cc
:104618009e40780080cf5000d3ff36001e009000e7
:104628000000e0000d003a001e0890000000e900bc
:104638000001780061d929000e089000a9f407004c
:104648001e0890000000e9008e08900000804000dd
:104658008040eb0001487800100037002e009000e1
:104668000000e0000d0032000e08900085f40700fd
:10467800e40040001e089000808f500007003100c1
:104688000e0890007ff407008e089000008040001c
:1046980052002000b1d9290051f407001e009000f3
:1046a8000080fa00000006000000fa00a286a800b8
:1046b800800c200001002000c0070700a286a90086
:1046c800800c200001002000bc0707000080fa00d1
:1046d800000006000200fa00004f78007be6a900ff
:1046e800a2a6a900b135800000f02f0080806000ec
:1046f8001e4078000080fb0001007000b035880083
:10470800e9ff070000f4210001002000ab070700c3
:104718000080fa00000006000200fa00004f78004e
:104728007be6a800a2a6a900b135800000f02f0002
:10473800808060001e4078000080fb00010070004f
:10474800b0358800d8ff0700800c20000100200049
:104758009a0707000080fa00000006000200fa002d
:10476800000f7800040037001e0078001040780021
:104778001e0fe800e8ff07001e00780010407800d0
:104788000004e000f8ff3a000080fa00000006008c
:104798000600fa0010079800210798001e009000f4
:1047a8000000e00002003a00000820000100370085
:1047b800000c2000000f78002e0090001e0f400013
:1047c8001e00780000407800c2ff07000080fa0051
:1047d800000006000000fa007fe6a90077e6a900bd
:1047e8009e86a9009ea6a9009135800000f02f00a2
:1047f80000806000903588007be6a900a2a6a90089
:10480800a286a90000d42000310020006b07070011
:1048180080c3b300afff070000e2240001002000be
:104828006607070080c3b300aaff070080252000a1
:10483800010020006107070080c3b300a5ff07003f
:1048480080c3b300a3ff0700c0c0b300a1ff0700e7
:1048580010c0b3009fff070000f4210001002000f2
:104868005607070060c0b3009aff07000080fa00ef
:10487800000006006000fa00102f9800212f980011
:10488800322f9800432f9800542f9800652f9800d6
:10489800762f98000040eb002047980000408000e9
:1048a8000000e0000e003a00104080000000e00028
:1048b8000b003a00204080000000e00008003a00a9
:1048c8000e80e800eff307008e80e80000804000cb
:1048d800d200200001da2900c1f307002d003700bb
:1048e800004080000000e0000c003200200420009e
:1048f8000e0040009e289000811f7800d1da290020
:10490800811f780079f30700e4875700210420000d
:104918008e8040000e80e800c9f307001040800038
:104928000000e0000c003200200420000e004000cf
:10493800ae289000811f780021db2900811f7800b4
:104948006af30700e4875700210420008e804000a6
:104958000e80e800baf30700204080000000e00065
:104968000c003200200420000e004000be289000f9
:10497800811f780081db2900811f78005bf3070025
:10498800e4875700210420008e8040000e80e80054
:10499800abf307000e80e800baf30700000f7800b9
:1049a800050037000e80e8001e00400001c2b30079
:1049b800014878001e0fe8001e007800ef0f500035
:1049c800f8ff34000040eb00205798000040eb004f
:1049d80020679800004180000000e00009003200d4
:1049e800200220000e004000fe289000811f780061
:1049f80001dc2900811f78003cf30700e487570099
:104a080056003700504080000000e00013003a00d4
:104a1800604080000000e00010003a007040800014
:104a28000000e0000d003a00804080000000e00037
:104a38000a003a00200220000e00400091f307000f
:104a4800210220008e80400000804000d20020001b
:104a5800c1dc290062f307004000370050408000a5
:104a68000000e0000d003200200420000e0040008d
:104a7800ce289000811f780091dd2900811f7800e1
:104a88001af30700e4875700210420008e804000b5
:104a9800200220000e00400069f3070060408000fb
:104aa8000000e0000d003200200420000e0040004d
:104ab800de289000811f7800f1dd2900811f780031
:104ac8000af30700e4875700210420008e80400085
:104ad800200220000e00400059f3070070408000bb
:104ae8000000e0000d003200200420000e0040000d
:104af800ee289000811f780051de2900811f780080
:104b0800faf20700e4875700210420008e80400055
:104b1800200220000e00400049f30700804080007a
:104b28000000e0000d003200200420000e004000cc
:104b3800fe289000811f7800b1de2900811f7800cf
:104b4800eaf20700e4875700210420008e80400025
:104b5800200220000e00400039f307002002200048
:104b68000e00400047f30700000f780006003700ea
:104b7800200220000e0040001e00400001c2b300c9
:104b8800014878001e0fe8001e007800ef0f500063
:104b9800f7ff34000040eb00207798008000eb001e
:104ba8000000eb00fafe07000e80e800ebfe0700ad
:104bb8008000eb0010002000f5fe07002002200016
:104bc8000e004000e5fe07000080fa000000060025
:104bd8000400fa00881f780010c0b300bdfe07006b
:104be80000f4210001002000740607008000eb009b
:104bf8000000eb00e6fe070000df2900d7fe0700f3
:104c08008000eb0010002000e1fe070010e0290002
:104c1800d2fe070011338000010f78003133800085
:104c2800110798000300370000c429000100200084
:104c38006206070001358000000420000080600043
:104c48000000e0000f003a0001358000000022005b
:104c5800008060000000e0000a003a000135800092
:104c680000082000008060000000e00005003a0015
:104c78002133800000082000008060000000e00070
:104c8800e9ff320000d42000310020004b06070065
:104c98001133800000f02f0080806000c0082000e1
:104ca8000100700010338800070037000000000082
:104cb8000500370000000000030037000000000076
:104cc80001003700000000003133800000f82f0099
:104cd80000846000cef2070080007800f007200012
:104ce80000806000080070003033880000a82100b0
:104cf8006100200031060700013580000004200013
:104d0800008060000000e000e8ff3a000135800004
:104d180000002200008060000000e000e5ff3a008b
:104d28000135800000082000008060000000e000dd
:104d3800e2ff3a0021338000000820000080600074
:104d48000000e000dfff3a000300370000c429003c
:104d5800010020001906070001358000000420002a
:104d6800008060000000e0000f003a00013580007c
:104d780000002200008060000000e0000a003a0005
:104d88000135800000082000008060000000e0007d
:104d980005003a00213380000008200000806000f0
:104da8000000e000e9ff320000d4200031002000bc
:104db800020607009e007800113388009e009000cc
:104dc8003133880010c0b30042fe070000f4210010
:104dd80001002000f90507004f0478000080fa0060
:104de800000006001e00fa0010c0b30039fe0700dc
:104df80000f4210001002000f005070011338000b5
:104e080061079800313380007107980011338000e2
:104e180000f02f0080806000c008200001007000b2
:104e28001033880020e12900100f9800d0e12900f4
:104e3800200f9800a0e22900300f980060e32900b5
:104e4800400f9800f0e32900500f980080e42900f3
:104e5800600f980030002000000f98008000eb00e1
:104e68000000eb004afe070010e529003bfe0700a2
:104e78008000eb001000200045fe070030e6290006
:104e880036fe070000202100a1072000cb050700ff
:104e98000300370000c4290001002000c7050700ef
:104ea8000135800000002200008060000000e00062
:104eb800f8ff320001358000000820000080600003
:104ec8000000e000f3ff320000d420003100200091
:104ed800ba0507000000eb00000f78000000eb00a7
:104ee80010079800100020002007980001003700e4
:104ef8000000000010c0b300f6fd070000f4210018
:104f080001002000ad0507008000eb000000eb0069
:104f18001ffe07001e007800000040000000470048
:104f2800100890000dfe07008000eb001000200024
:104f380017fe07001e007800000040000000470030
:104f48004008900005fe07000000eb0030079800bd
:104f58000000eb00400798000000eb0050079800a5
:104f6800310037005e0090000000e800500798000c
:104f78005e009000e70f50001d0034000000eb00b9
:104f8800500798003133800000f82f0080806000bf
:104f9800120020001e0090000010dd0001007000cb
:104fa800303388009e0090002e0090000080400062
:104fb800100798001e009000e50f5000050034000f
:104fc80060002000100798000080eb002007980080
:104fd800070037001e0090000000e00004003c00bd
:104fe8000000eb0010079800100020002007980030
:104ff8000135800000042000008060000000e0000f
:1050080003003a0010002000400798000a0037000b
:1050180000c4290001002000680507003e00900038
:105028000000e80030079800be009000700c2000d7
:10503800808f5000cbff34004e0090000000e0004d
:10504800170032000300370000c4290001002000c7
:105058005a05070001358000000420000080600028
:105068000000e000f8ff320000d4200031002000ea
:1050780052050700ee00900011338800fe009000f2
:105088003133880010c0b30092fd070000f42100fe
:1050980001002000490507000080fa000000060012
:1050a8001e0fe8000e0890009e007800808f5000c8
:1050b8008fff35000000eb00000f78008dff3700f0
:1050c8000000fa009021ef00a0612000900c8800f9
:1050d80041058000f0ff2800808060000000250066
:1050e80001007000400588008860a9009860a80049
:1050f80000032800a00c88000080fa0000000600c9
:105108000000fa0090012000001d880001088000be
:10511800f00b200000816000600420007105200071
:10512800031020008049780081497800824978007e
:10513800213f8000f00f28008080600000302000b0
:1051480001007000203f8800a13d800000fc2f0076
:1051580000806000a000b300a03d88009823ef0005
:1051680099e3a8009a23ef009b43a80061058000fb
:10517800f0ff28000080600000e0a00060058800c3
:105188008960a9009960a8000080fa000000060064
:105198000200fa00004f780000000000d11c8000d7
:1051a80000202000008060000000e000fbff3a00c3
:1051b8001e00fb00e01c88000080fa0000000600ca
:1051c8000200fa00000f7800040037001e00780083
:1051d800104078001e0fe800edff07001e00780061
:1051e800104078000004e000f8ff3a000080fa0060
:1051f800000006000000fa006ae6a9007606a8008a
:105208007e06a8007626a8007e26a8007686a80036
:105218007e86a80076a6a8007ea6a8004627ef00ee
:10522800313a8000f0f02f0000806000303a8800aa
:105238004827ef0020002000503a880047e7a800e0
:105248000080fa00000006000400fa001007980029
:105258001e009000603a88004627a8000000eb0076
:10526800000f7800030037001e0078000000e800f7
:10527800000f78009e00780030062000808f5000d4
:10528800f9ff34004627a90000000000303a8000ea
:10529800610060000000e000fcff32004607a90042
:1052a800903880000080fa00000006000c00fa0028
:1052b800300798004107980052079800be009000f8
:1052c800010f78004e0090006ef10700100798005b
:1052d8005f0037003e0090009e007800808f5000ed
:1052e800030036001e00e900104078000100370076
:1052f80000c2b30040479800ce40900000c4b300fd
:1053080080cf500004003400ce409000a0c5b30008
:1053180080cf500008003400ce40900000c6b30093
:1053280080cf500007003400ce409000a0c7b300e3
:1053380080cf500003003c001e0090001e0f40006c
:10534800430037001e0090001e0f40001e0078002a
:105358009040780051479800de40900000c4b300a8
:1053680080cf500004003400de409000a0c5b30098
:1053780080cf500035003400de40900000c6b300f6
:1053880080cf500007003400de409000a0c7b30073
:1053980080cf500005003c002d0037001e0fe800ac
:1053a8000300370000000000010037000000000083
:1053b8001e007800104078000004e000050032006c
:1053c8001e00780090407800a0c3b30080cf500042
:1053d800f2ff3a001e00780090407800a0c3b300a6
:1053e80080cf50001a003a001e0fe8000100370075
:1053f8001e0fe8001e007800104078000004e0004e
:105408000f0032001e00780090407800f0c2b30010
:1054180080cf5000050034001e00780090407800ce
:1054280090c3b30080cf5000050034001e00780000
:1054380090407800d0c2b30080cf5000ecff3a0013
:105448001e007800c0f007000900370000000000c7
:10545800ce0090001e00780071f20700000f78005f
:105468001e0078000000e0009aff3a005e009000fd
:105478000080fa00000006001000fa00700798008b
:10548800304080000000e00003003a004040800007
:105498000000e00002003200100020000100370088
:1054a8000000eb00000f78009040800000017800b9
:1054b80041e729007e0090007cff070090408800ab
:1054c8009040800000407800614060000080fb0050
:1054d800610060004700dd00113380000170a10009
:1054e80001007000103388000081eb0061e729009b
:1054f8007e0090006dff0700100798001e009000c6
:10550800e10f40000a0032001e00900000407800c1
:10551800614060000080fb00610060004700dd0022
:10552800313380000170a100010070003033880021
:105538000081eb0091e729007e0090005bff0700e7
:10554800200798002e009000e10f40000b00320069
:105558002e009000004078006140600061406000cb
:10556800614060000080fb00610060003133800012
:105578000100a10001007000303388000081eb00b9
:10558800c1e729007e00900048ff07003007980017
:105598003e009000e10f40000c0032003e009000f9
:1055a8000040780061406000614060006140600038
:1055b8000080fb0061006000000040003133800083
:1055c8000110a10001007000303388000081eb0059
:1055d800f1e729007e00900034ff0700400798009b
:1055e8004e009000e10f4000120032003040800071
:1055f8000000e0000f003a00404080000000e0009a
:105608000c003a004e0090000040780061406000b5
:1056180061406000614060000080fb006100600044
:105628004200dd00313380000120a100010070003c
:1056380030338800a04080000001780021e829006c
