:020000040000fa
:080000000001040000000000f3
:020000040000fa
:0400080008020000ea
:020000040000fa
:04000c004a020000a4
:020000040000fa
:040010008a02000060
:020000040000fa
:0400140028020000be
:020000040000fa
:040018006a02000078
:020000040000fa
:04001c0024030000b9
:020000040000fa
:0400200024030000b5
:020000040000fa
:0400240024030000b1
:020000040000fa
:0400280024030000ad
:020000040000fa
:04002c0024030000a9
:020000040000fa
:0400300024030000a5
:020000040000fa
:04003400aa0200001c
:020000040000fa
:04003800240300009d
:020000040000fa
:04003c002403000099
:020000040000fa
:040040002403000095
:020000040000fa
:040044002403000091
:020000040000fa
:04004800240300008d
:020000040000fa
:04004c002403000089
:020000040000fa
:040050002403000085
:020000040000fa
:04005400d4020000d2
:020000040000fa
:04005800240300007d
:020000040000fa
:04005c002403000079
:020000040000fa
:040060002403000075
:020000040000fa
:040064002403000071
:020000040000fa
:04006800240300006d
:020000040000fa
:04006c002403000069
:020000040000fa
:040070002403000065
:020000040000fa
:040074002403000061
:020000040000fa
:04007800240300005d
:020000040000fa
:04007c002403000059
:020000040000fa
:040080002403000055
:020000040000fa
:040084002403000051
:020000040000fa
:04008800240300004d
:020000040000fa
:04008c002403000049
:020000040000fa
:040090002403000045
:020000040000fa
:040094002403000041
:020000040000fa
:04009800240300003d
:020000040000fa
:04009c002403000039
:020000040000fa
:0400a0002403000035
:020000040000fa
:0400a4002403000031
:020000040000fa
:0400a800240300002d
:020000040000fa
:0400ac002403000029
:020000040000fa
:0400b0002403000025
:020000040000fa
:0400b4002403000021
:020000040000fa
:0400b800240300001d
:020000040000fa
:0400bc002403000019
:020000040000fa
:0400c0002403000015
:020000040000fa
:0400c4002403000011
:020000040000fa
:0400c800240300000d
:020000040000fa
:0400cc002403000009
:020000040000fa
:0400d0002403000005
:020000040000fa
:0400d4002403000001
:020000040000fa
:0400d80024030000fd
:020000040000fa
:0400dc0024030000f9
:020000040000fa
:0400e00024030000f5
:020000040000fa
:0400e40024030000f1
:020000040000fa
:0400e80024030000ed
:020000040000fa
:0400ec0024030000e9
:020000040000fa
:0400f00024030000e5
:020000040000fa
:0400f40024030000e1
:020000040000fa
:0400f80024030000dd
:020000040000fa
:0400fc0024030000d9
:020000040000fa
:0401000024030000d4
:020000040000fa
:0401040024030000d0
:020000040000fa
:0401080024030000cc
:020000040000fa
:04010c0024030000c8
:020000040000fa
:0401100024030000c4
:020000040000fa
:0401140024030000c0
:020000040000fa
:0401180024030000bc
:020000040000fa
:04011c0024030000b8
:020000040000fa
:0401200024030000b4
:020000040000fa
:0401240024030000b0
:020000040000fa
:0401280024030000ac
:020000040000fa
:04012c0024030000a8
:020000040000fa
:0401300024030000a4
:020000040000fa
:0401340024030000a0
:020000040000fa
:04013800240300009c
:020000040000fa
:04013c002403000098
:020000040000fa
:040140002403000094
:020000040000fa
:040144002403000090
:020000040000fa
:04014800240300008c
:020000040000fa
:04014c002403000088
:020000040000fa
:040150002403000084
:020000040000fa
:040154002403000080
:020000040000fa
:04015800240300007c
:020000040000fa
:04015c002403000078
:020000040000fa
:040160002403000074
:020000040000fa
:040164002403000070
:020000040000fa
:04016800240300006c
:020000040000fa
:04016c002403000068
:020000040000fa
:040170002403000064
:020000040000fa
:040174002403000060
:020000040000fa
:04017800240300005c
:020000040000fa
:04017c002403000058
:020000040000fa
:040180002403000054
:020000040000fa
:040184002403000050
:020000040000fa
:04018800240300004c
:020000040000fa
:04018c002403000048
:020000040000fa
:040190002403000044
:020000040000fa
:040194002403000040
:020000040000fa
:04019800240300003c
:020000040000fa
:04019c002403000038
:020000040000fa
:0401a0002403000034
:020000040000fa
:0401a4002403000030
:020000040000fa
:0401a800240300002c
:020000040000fa
:0401ac002403000028
:020000040000fa
:0401b0002403000024
:020000040000fa
:0401b4002403000020
:020000040000fa
:0401b800240300001c
:020000040000fa
:0401bc002403000018
:020000040000fa
:0401c0002403000014
:020000040000fa
:0401c4002403000010
:020000040000fa
:0401c800240300000c
:020000040000fa
:0401cc002403000008
:020000040000fa
:0401d0002403000004
:020000040000fa
:0401d4002403000000
:020000040000fa
:0401d80024030000fc
:020000040000fa
:0401dc0024030000f8
:020000040000fa
:0401e00024030000f4
:020000040000fa
:0401e40024030000f0
:020000040000fa
:0401e80024030000ec
:020000040000fa
:0401ec0024030000e8
:020000040000fa
:0401f00024030000e4
:020000040000fa
:0401f40024030000e0
:020000040000fa
:0401f80024030000dc
:020000040000fa
:0401fc0024030000d8
:020000040000fa
:10020000afc221000eff27000e0188000000000091
:10021000000020000000e000020032000001200089
:100220002002880014000700090107000000e00018
:1002300003003a00c0152200010020000200370030
:100240000000200001002000810f7000010032003a
:1002500014000700000020000000e000020032004f
:100260000000020000000000ec1e02000000000080
:100270000040da000000fe004440a900800f20008a
:100280000000e00003003200002020009001880000
:100290004440a800000006008a1f78008b1f7800e9
:1002a00000000600a1028800800478000000eb0036
:1002b0001f003700e284440054a0b4009905ba003e
:1002c000e284440054a0b4009906ba00e2844400d9
:1002d00054a0b4000006eb00476fde00fd07b2003b
:1002e000ae018800636ce10003003a00eaff0700fa
:1002f0000000eb000e003700606ce10008003a00df
:10030000004deb000a05e800020039003420ec0043
:100310000af0a0008b05e900f9ff3e000400370059
:100320006168e100010032000086eb000b0007006d
:1003300019c7ba001905ba000e04e00003003a001c
:100340000a00e000dbff3a0000000600fe07b200f2
:10035000ae0288008a047800f5ff37000cd0a300b5
:10036000e20f4d001c00390089027800354dba00bb
:100370000a05e800020039003420ec000af0a00071
:100380008b05e9000f003200254dba000a05e80090
:10039000020039003420ec000af0a0008b05e900cf
:1003a000080032000c00e0000600320015cdba0053
:1003b0000a05e800020039003420ec000af0a00031
:1003c0008b05e9008984e80054a0b4000b00e0002c
:1003d000e2ff3a00000006009902ba00055d7800cd
:1003e0008b05e900f7ff3200c82ade00055d7800c2
:1003f0008b05e900f3ff32000c00e000f1ff320052
:1004000019ddba00eeff3700702004000000000084
:100410003600f800809fbe00829fbe00849fbe0011
:10042000869fbe000000fa008020a9000000eb00bb
:100430000c1007000080fa004f03be004f02be0000
:100440004f01be004f00be003600f900004006001c
:100450003600f800809fbe00829fbe00849fbe00d1
:10046000869fbe000000fa00051007008040a9002a
:1004700010002000fb0f07000080fa004f03be00b1
:100480004f02be004f01be004f00be003600f90013
:10049000004006003600f800809fbe00829fbe002c
:1004a000849fbe00869fbe000000fa008060a90005
:1004b00020002000eb0f07000080fa004f03be0071
:1004c0004f02be004f01be004f00be003600f900d3
:1004d000004006003600f800809fbe00829fbe00ec
:1004e000849fbe00869fbe000000fa008080a900a5
:1004f00030002000db0f07000080fa004f03be0031
:100500004f02be004f01be004f00be003600f90092
:10051000004006003600f800809fbe00829fbe00ab
:10052000849fbe00869fbe000000fa008600a900de
:1005300070002000cb0f07000080fa004f03be00c0
:100540004f02be004f01be004f00be003600f90052
:1005500000400600809fbe000000fa008860a900ed
:10056000004180000000e0000c003400c04080002a
:100570000000e800c0408800004180006a00b90027
:1005800080007800c0408000808f500003003c0055
:100590001828ef0010002000d04088000080fa00ea
:1005a0004f00be0000400600809fbe00821f780002
:1005b0000200fa008960a9001b003700f01c8000cf
:1005c000004f780091408000e00f2000808f5000a5
:1005d00014003c0090408000e18220001e41780021
:1005e000827078000000e80090408800d0c7b30017
:1005f0009e40780080cf5000030032001e407800fb
:10060000ea4f500008003a0090408000e18220004c
:100610000041eb008270780010002000a0408800ac
:10062000010037001228ef00d01c8000610060003c
:100630000000e000e1ff3a000080fa004f0178007e
:100640004f00be00004006000040da000000fe003f
:10065000000005006011b80067023700889fbe00e7
:100660008a9fbe008c9fbe001b0020000202be00bd
:100670000586680006002800060666004709de00b9
:10068000f20fb200820032000243e8008000320024
:10069000c729de00f30fb2007d0032000343e800fb
:1006a0007b003200f107b2000170a000f507b20034
:1006b0000570a000c708dd004903de0086807000d9
:1006c0004700dd00c72add004923de008682720074
:1006d0004722dd00030551000403500085835800c4
:1006e0000300310000004000818048000a05e90055
:1006f0008c1f78008a9fbe0004005000858058003f
:100700000402420085824a000000400081804800c7
:100710000005eb000004be006033b8000406be0014
:100720000d48e10056003100110009004dccd80001
:100730000c01b8000d02b8008481410060824a00bb
:100740008283530003045c0084845c0060055d00c8
:100750000a00e00025003a00800578000d40e10025
:100760004900310088007800070078001100090076
:100770004d88d8000c01b8000d02b80084814100fa
:1007800060824a006003110083835b0004045c0004
:10079000e0845c000900e00021003a004f01be0047
:1007a0000300e0002b003200e30160000706730045
:1007b0008c81710001003200640070004200de0094
:1007c0004e5edd000c007000c258de0001e0a000ab
:1007d00083010700cf017800818071004f06be00c1
:1007e0004f05be004f04be00000006008c8343008e
:1007f0000d044c00e0844c0060054d000000e90051
:100800000a00e000d4ff32008c8343000d044c004a
:10081000e0844c0060054d000000e900ceff370089
:100820000c0343008d834b0060044c00e0844c00bb
:100830000000e9000900e000d8ff32000c0343008b
:100840008d834b0060044c00e0844c000000e90004
:10085000d2ff37004200de004e5edd000c0070006b
:10086000c258de0001e0a000cf0178000300e000e4
:10087000daff320060001000e0801800d7ff370078
:10088000f0ff2f00aaff3700f0ff2f00b9ff37005d
:100890000404be002f010700870678000004fd0055
:1008a0008104fd002b010700078366000678a30082
:1008b000030032000960a7000800be002c003700ca
:1008c0000d78a300020032000800be0028003700a7
:1008d0000778a30026003a0001f0a10009f0a1006a
:1008e0000668a30003003200f1ff2700f0ff2f008d
:1008f000baff37000d68a300030032000800be00f5
:100900008c807000b5ff37000768a30007003a002d
:100910000648a30003003200f1ff2700f0ff2f007c
:10092000aeff37000d48a300030032006000b8009e
:100930008c807000a9ff37000748a3000400320034
:1009400001f82700000020008c807000a3ff370012
:10095000760107000004fd008104fd000205780017
:10096000720107000802be008a01780059ff3700b3
:100970000160a000120220006241880097ff37004a
:100980000100e000120032000500e000100032001b
:10099000889fbe008a9fbe008c9fbe000006eb00b1
:1009a00001f8a3000300320060001000e08018008e
:1009b0000cf0a00005f8a300030032006002120052
:1009c000e0821a000cf0a2008005eb0041ff370026
:1009d0006000b800020005000383680007002800db
:1009e00007036300470ade000480a100c71ade0087
:1009f0000580a100f70f20000720e100420032002f
:100a00000728e10040003200889fbe008a9fbe0098
:100a10008c1f7800f107b200f307b2000400e00079
:100a2000640032000170a0000500e00068003200a0
:100a30000370a00085054200eb07b1000204b80076
:100a40000302b8008484440060854a00020ab800aa
:100a5000848444000a854a00030ab800040545005e
:100a6000040033000804d0008984d2000a85d20033
:100a70008b05e9006158e1003d00350002102000bf
:100a8000090161000308200089816100f707200047
:100a90008783640008867300c84cde00c853dd00fd
:100aa000878474004855de000300e0000600320031
:100ab00082037600040032008904e80060054d00de
:100ac0000a88a3000c003a00f70f20000758e10045
:100ad00044003d000a70a100c75ddd000a85750075
:100ae0008a007300090078004f0678004f05be00a9
:100af0004f04be00000006000a05d1008984d3001f
:100b00008b05e800f0ff3700881f780006047800a6
:100b100090000700070278000001fd008101fd0040
:100b20008c00070087027800850372000778a30015
:100b3000050032000001fd008101fd009f0007005b
:100b40004f04780000000600850372000748a300e8
:100b500003003200f0ff2f00f1ff2700f8ff3700fd
:100b60000000200001f8270088807000f4ff3700a3
:100b7000880178004848dd00808171004848de0027
:100b8000c850dd0001007000c850de000604780087
:100b90000b0178001600070088807000d2ff370034
:100ba0000500e00005003200170020003a000700b1
:100bb0009dff370081037000f9ff3a00860078003e
:100bc0004f0678004f05be004f04be000000050030
:100bd00083037100f9ff3200270020002e00070078
:100be00094ff370001f8270086807000f4ff37007b
:100bf0000100e00026003200610111007810e100e0
:100c000023003c006022b8007010e10004003500b1
:100c100080027800010078008000eb007001510034
:100c20000200e0000900340070031100062add0014
:100c3000822ade008603dd00878272000200de0069
:100c4000860bdd00070070008208de0084817100e1
:100c5000f4ff2700048262008481710004002800f0
:100c6000848262006102600005f0a60000000600b8
:100c700004827100070032000000e800e0804800b4
:100c8000000006000002be006000b800efff370061
:100c90006000b80000000600889fbe000004eb0062
:100ca0006138e10016003a000100e00008003a0057
:100cb000c800de004800dd00880020000100e000e0
:100cc00003003a00c800de004800dd00680444006c
:100cd0008184cf00e9845400060034008908dd00d7
:100ce000f08314008703de00878070000900dd00b8
:100cf00009044400610214004f04be000000060015
:100d00000300e00008003a00c811de004811dd00d1
:100d1000880020000300e00003003a00c811de0054
:100d20004811dd00680444008384cf00e984540046
:100d3000060034008919dd00f08314008713de00fb
:100d4000878171000911dd0009044400e1021400eb
:100d5000e9ff37002700200001f0a700170020005e
:100d6000470bde00f60fb200040032000643e80035
:100d70000a0032004702b3000000060001037800b9
:100d8000f607b2000603700002003a000703b30042
:100d9000000006008702b30000000600010378008f
:100da000f607b20006037000020032000770a000d0
:100db000000006000760a000000006000478a30001
:100dc000040032000578a300030032000168a3008c
:100dd00001003a000200be000160a0000000060011
:100de00081017000270032008002eb0001f8a300af
:100df0000300320060001000e080180015002000a1
:100e0000f40720000202420020003400f703200013
:100e1000870360000604200000036300020820002e
:100e2000000161004700de00c909dd00008071009b
:100e3000c708de000600e0000800320087037100ea
:100e4000060032001000b0000180b0000188a3004d
:100e500002003200c108de000402e800f107b2001f
:100e6000f30f20000320e10003003d004722dd00d6
:100e7000810072002900370001f827000000eb0014
:100e8000260037006000b80000000600680212006b
:100e90007f20e100020034006000b8001f0037002e
:100ea0006011b8007020e100040035008001780076
:100eb000010078008000eb00700252000400e000a6
:100ec00009003400f00312000719dd008419de0068
:100ed0000703dd00868171000400de00070bdd00e2
:100ee000060070008408de00f7ff2700838363009c
:100ef0008703710006002800030363000700320027
:100f00000700e00003003a00610160000281730005
:100f1000020032001000b0000180b0000500a60001
:100f20000000060001f0a000000006004f0ade00ed
:100f30004709de00f107b200f20fb2000b003200e9
:100f4000f207b1000170a000c708dd00c901de0092
:100f5000838070004700dd000400a600000006004a
:100f600060001000e080180000000600810f700093
:100f700001003a00000006008182cf000500e00079
:100f800010003e008082cf00ee8242007028e10017
:100f90000400390007003e00800078000000eb00ec
:100fa0000e003700708312008600de000500dd00b1
:100fb0000a003700708352008600dd000000eb005d
:100fc00006003700e28252008508dd0070831200bf
:100fd0000603de00868070000500dd007507b000a6
:100fe0000501ea000400a6000000060060001000f1
:100ff000e080180000000600889fbe008a9fbe00a7
:101000000082700004027100048271002600320028
:101010000004be000200be006011b8006b09200091
:10102000950220000182cf000a0039000541b1007d
:101030000082cf00070039000541b1000982cf00ce
:10104000040039000541b1000882cf0001003900d9
:101050000541b10005425200120032000a003b0077
:1010600082817100610164008100d1000080d300a1
:101070008984d3000884d3008b05e8000442e8008b
:10108000f7ff3a00070037000804440089844c0049
:1010900000004800818048008b05e9000442e90017
:1010a000f9ff3a00030007004f05be004f04be00e1
:1010b0000000060081002000618055000b003d000b
:1010c0000b00200061fe2f000100e1001d00340034
:1010d00082817100610164008904d1000884d30019
:1010e0000000e800faff3a0071002000610064008f
:1010f0000300700002006000090032006104440037
:10110000e0844c000988a500050032008b05e8004a
:101110006808e10002003a008904d1000884d30085
:10112000f20f20000258e10005003d00c75ddd0020
:10113000f907b200898075000800780000000600f9
:101140000bf827008b007800000005000000fa0073
:1011500068815700cfb89700a60307000080fa0007
:1011600000000600ca01070022020700560207001d
:10117000d2020700fa020700f6030700a1033700b6
:101180000000fa0068815700cfb897009903070064
:101190000080fa00000006004b0237008000780053
:1011a0001000200002022000828f50000400320054
:1011b000e9805000e48f5000010036000000eb0091
:1011c00000000600889fbe008a1f78000005780096
:1011d0000a047800984478000805e8000900fb003c
:1011e000eeff07000000e000f9ff3a00b0c2b300d4
:1011f00080cf540005003200d0c2b3008000eb0065
:1012000080cf540005003a00020037008000eb0058
:1012100001003700110020000804e8000000eb0086
:10122000030037006a02b900020052000003b00058
:101230003801fb0003fd2f0082814100e98f51003e
:10124000f8ff36000100e00001003a000000ea006b
:101250004f0578004f04be000000060080007800b3
:10126000040037003104e00002003a0000005100a1
:1012700000000600010178000108a300f9ff3a0010
:101280008101780031017800f4ef2f000202420062
:101290000281ea00020162000408280004016100e2
:1012a000f7ff320083007800010178003104e0008c
:1012b000fdff3a00000051000000060011429000be
:1012c0000482fb009180fb00c808dd0004827000ee
:1012d00080007800d181fb001081fb004811dd0007
:1012e00003017100030037004811dd001180fb008d
:1012f00002017000010078003104e00004003200b7
:10130000840f5100f8ff3a000000e90000000600d9
:1013100000000500114390008683fb0006002000ba
:101320001181fb008001eb00c811dd0002002000ec
:101330000203730083837300214190004811dd0094
:101340008001eb0002037300838373008080e80058
:10135000104190008281fb00020020001082fb00ff
:101360008002eb00c822dd000400200004017100af
:10137000858171001182fb004822dd008002eb00b4
:101380000401710085817100080037001182fb00a3
:101390008002eb0004027100858271004829dd00a3
:1013a000c821de00830171004821dd0001007800c2
:1013b0003104e00005003200860f5100878f59008c
:1013c000f2ff3a000080e90000000600000005007e
:1013d000314190000281fb008001eb001183fb0092
:1013e0008003eb00c833dd00060020000603710017
:1013f00087837100114190008281fb000200200070
:101400000203730083837300214190004811dd00c3
:101410008001eb000203730083837300e30040004c
:101420001182fb008002eb001081fb008001eb00c9
:10143000c811dd00020020000201720083817200e9
:10144000104290008482fb0004002000040171001f
:1014500085817100204290004822dd008002eb006f
:1014600006003700481add00c812de00850272004f
:101470004812dd001181fb008001eb0002017200c7
:1014800083817200010078003104e0000500320021
:10149000860f5100878f5900f2ff3a006300500019
:1014a00000000600000005002802fa00889fbe0028
:1014b0008a9fbe008c9fbe000004780081057800e2
:1014c0000f000900001feb000e02b1000b017800b5
:1014d000880078008004eb000d0037000080fb00de
:1014e000c401de008381410003024700ef02600077
:1014f000160020008532dd00ee817900038a72003b
:101500008684440000004000000047000910980055
:10151000324078000004e00005003a001a00200084
:101520000a0078000001eb008081eb001900370011
:101530003104e000e9ff3a00a200370003824500d1
:10154000e44278006bc2780084cf520005003a0074
:101550008a0f50000c0032000000e8008200780082
:101560000b00370084cf5200020036000385500084
:10157000060037008200e800820178001a0020008f
:101580000a007800020037000005780010002000f3
:101590000101780082004000898f5000e7ff390088
:1015a00011002000010078000002eb008086eb00b3
:1015b000160037008d82450065437800eb427900c4
:1015c000854f530005003a00810f50000c00320097
:1015d0000000e800040178000b003700854f53003d
:1015e000020031008d005100060037000401e800c0
:1015f0008406780011002000010078000200370006
:1016000080007800100020000202780004014000f1
:10161000890f5100e7ff39000d01e8000300e800e1
:10162000800f5100020036000105780001003700ec
:10163000830678000d02e8008a80450004017800e6
:101640000b00780034179a001c0507003e12920028
:101650000000e000080032000905e9000d05550012
:101660008d0f5500010031000d0578000a05e800d6
:101670008002eb00010037008a8254008801780064
:101680000006eb0008805100890f50001600310061
:1016900009037800f603b300060178008000eb0030
:1016a0000300780003179a0034179a0015179a0060
:1016b00026179a00d10407008e1192003e12920064
:1016c0009e1292002e1392000000e00005003200ee
:1016d00088005000898f50003a003900800178005e
:1016e00001003700868141008900440071f89700ad
:1016f0000080fb006f01600017002000823bdd00ce
:101700004401de00020141006e037900068163009e
:101710000d00320000004000000047000010900063
:10172000008054000a0032000500e000150032007d
:101730000c00e000130032008a0f5000110031004d
:101740000a8054000f00370001047800ccff3700f6
:101750000c007800840f560003003100040078006c
:10176000010037000000e800eb4078000104e000d1
:10177000060032006841780082cf5000f9ff320045
:101780000d00500000044400bdff37000d0078003c
:101790008000e8008c8f5000080036006b41780014
:1017a000e84078000000e900814f5100f8ff320066
:1017b0000a04440005067800b2ff370008007800ec
:1017c000010037000000eb004f06be004f05be00d1
:1017d0004f04be000080fa0000000600881f780059
:1017e00001047800984078000104e00026003200ef
:1017f0008100fb002a0507000000e0002200320003
:10180000984090000104e0001f00320090409000da
:101810000104e0001b003200a84090000104e00039
:1018200003003a0088007800a4fe07001600370085
:10183000a04090000104e00012003200b840900087
:101840000104e00003003a0088007800b1fe0700c0
:101850000d003700b04090000104e00009003200a4
:10186000c84090000104e00003003a0088007800be
:10187000d7fe070004003700880078000aff070041
:10188000010037000000eb004f0478000000060064
:10189000ec874700889fbe008a9fbe008c9fbe00d9
:1018a0008e1f780000067800010478001807900069
:1018b0002805900098067800cdb79f00b8059000e5
:1018c0003202be002203be000400be000601be00bc
:1018d0004f18de006011b8008000eb00d0b79f0009
:1018e000e1b79f00f2b79f0083bf9f00800478009c
:1018f0000900e000060032006000b8006011b80086
:10190000040250008582580006035900878359005d
:101910000e00e000020035000d10a100cdb79f00c1
:101920000900e00005003a004fb097000028a3002e
:1019300002003a000038a300020032008a00e900e9
:10194000010037008a007800f8815700a2002000cb
:1019500008007800860007000900e00003003a0054
:10196000cfb097000128a300080032000000e90072
:1019700000814500b1c2b3000900e000010032005f
:10198000d1c2b30001497800050037000138a30037
:10199000030032000000e90001c2b3008175780045
:1019a000480190000201e9000001510080804500db
:1019b0004fb297008a0178000c00780030020700cf
:1019c0009c0090000188a300040032009800900061
:1019d000810f500001003d00010078004f077800a2
:1019e0004f06be004f05be004f04be00cf00b10041
:1019f000000006000200fa00889fbe008a9fbe0019
:101a00008005780001047800020078001801900039
:101a10002805900098007800b1bf9f00b80490009e
:101a20000200e000020035000110a100b1bf9f00dc
:101a3000ea815700820020008a0078003002be0050
:101a40002003be0008007800490007003fb9970056
:101a5000f0006100030032000000e90001c3b300a0
:101a6000817478003fb99700e800610003003200fc
:101a70000000e90001c2b3008174780048019000c1
:101a80000201e90000015100808044003fba970044
:101a90008a0178000b007800f90107009b00900094
:101aa0000188a3000400320098009000810f5000cc
:101ab00001003d00010078004f05be004f04be004c
:101ac0000080fa0000000600ea874700889fbe00f9
:101ad0008a9fbe008e1f7800000478000300780003
:101ae0007287570084e2260055c72600049fbe0077
:101af000c3962200030f78006c875700004feb005d
:101b000011059000a1049000910578000200e0000a
:101b10000200320002077800010037007287570088
:101b20000000e00002003a000e007800cbfd070044
:101b30000a00e000030035008a0f50000100360063
:101b40000a0078000b027800890178000001780013
:101b50008e00780008007800c90107004f07780060
:101b60004f05be004f04be00af00b10000000600ec
:101b7000f4874700889fbe008a9fbe008c9fbe00ee
:101b80008e1f78000605be000404be0081bf9f00c2
:101b900082b79f00f3b79f00b0009000e1b79f00ad
:101ba0001301780092b79f009006900040009000cb
:101bb0000000e900000678000d00e00001003d0093
:101bc0001d0020008040eb00efb19700817178008c
:101bd0001e0020001f0037000c06e9000fb0970020
:101be000cf80de006109b900a0b79f00b1b79f00a8
:101bf000c2b79f00d3b79f000203be000002be0021
:101c00000800be000a01be00940507000007780026
:101c10000e4078000043b000efb0970080707e0067
:101c20008d06e9000fb997000201e90082bf9f000d
:101c30002fb29700bfb297004fb39700dfb3970062
:101c40000800be000a01be007d0507000205be00b7
:101c50000004be000c00e0000d003400e00f540052
:101c6000e08f5c00e00f5d00e08f5d00daff3a007e
:101c70000d00e000d8ff3c008fb997000300e000a2
:101c8000030034001fb097000018a300d2ff3a00f1
:101c90000e00e00002003a00ffb097001140a100e2
:101ca0000c0078004f0778004f06be004f05be00bd
:101cb0004f04be004f01b100000006000200fa0010
:101cc000889fbe008a9fbe0000057800010478004e
:101cd0000200780018019000a80490009800780095
:101ce000b1bf9f00b80590000200e000020035007f
:101cf0000110a100b1bf9f00ea815700a20020009f
:101d0000890078003002be002003be000800780081
:101d100097ff0700480190000201e900000151000f
:101d2000808045003fba9700890178000a0078005a
:101d3000530107009a0090000188a30004003200bc
:101d400098009000810f500001003d0001007800d4
:101d50004f05be004f04be000080fa0000000600e0
:101d6000fa874700889fbe008a9fbe008c9fbe00f6
:101d70008e1f7800800478000104780082057800c6
:101d8000180190002805900018077800b80090000e
:101d90000200e000020035000e10a1000100370033
:101da0001200200070006700e0b79f0009003200b9
:101db0003b02be002b03be00e00f5200e08f5a0032
:101dc000e00f5b00e08f5b00020032008a86e900d2
:101dd000010037008a067800e8026700f5b79f0027
:101de000010032008d06e9003b02be002b03be005d
:101df000e4af9f00f5af9f0086b79f0097b79f00a5
:101e0000480690000c06e9000040eb0080707e0060
:101e1000efb297007fb297008903780081047800c1
:101e2000d8af9f00020478008bbf9f008a0578001e
:101e3000034578002a0037000c06e9006fab9700d5
:101e40006f006300e90f500002003c000003b00087
:101e5000010037007005b0000a03fb001604b10052
:101e6000f90f53000c003e00000378000650a0005c
:101e70001606b100f90f530007003e00b4b79f00eb
:101e8000a5b79f00c7b79f00c1030700cfb3970056
:101e9000afb297003fb2970080747e000804e9005b
:101ea0008d06e9006fa89700ffa897000fb1970073
:101eb0009fb19700460020008301d1000281d3002a
:101ec0008180d3000080d3000603e900faff3a00c6
:101ed000e0af9f00f1af9f0082b79f0093b79f00d4
:101ee000e10f56000f0034006fa89700ffa897007d
:101ef0000fb197009fb19700e00f5000e08f58009e
:101f0000e00f5900e08f5900cbff3a000800e000d5
:101f1000c9ff3c000d00e000020034000e18a300d1
:101f2000c5ff3a0089007800f4b79f008704780065
:101f30005fac97008a4178000b0578008fbd970051
:101f40000500e000100032003b02be002b03be0083
:101f5000e4af9f00f5af9f0086b79f0097b79f0043
:101f6000e00f5200e08f5a00e00f5b00e08f5b0053
:101f7000050032000c06e90083707e000c06e900c3
:101f800000c3b30080707e00ffb297000500e00040
:101f9000030032000c06e90000c2b30080707e002e
:101fa000480190000201e9000c0151008c804000c2
:101fb0000e0278008a01780009007800b00007005e
:101fc000990090000188a30004003200980090005e
:101fd000810f500001003d00010078004f0778009c
:101fe0004f06be004f05be004f04be00af01b1005a
:101ff000000006008201780001017800f1ff27004f
:102000006a03370084082000848f50001d003200ce
:102010000d003c0014082000848f5000270032007f
:1020200002003c00040820000400370024082000bf
:10203000848f50003400320044082000848f500008
:1020400043003a0036003700040a2000848f500015
:102050002700320004003c0004092000848f500057
:102060003b003a0028003700020c2000828f50000d
:102070002f003200020f2000828f500034003a00ff
:102080002b0037009380e9000200e00005003200d9
:10209000810978001102fb00cfa2de00612bb9009c
:1020a0002800370081097800114278000482fb0083
:1020b0008002eb006033b800220037001302780082
:1020c000e40052000200e0000500320081097800bf
:1020d0001102be004fabde00860378001900370006
:1020e000810978001102be006033b8001500370086
:1020f0009380e9008109780011027800cfa2de0008
:10210000612bb9000f00370093027800e88052007d
:10211000810978003102be002103be0009003700aa
:102120009380e9000200e00002003200f1ff370076
:102130009380e90081097800110278008002eb00a9
:102140006033b8000498be000690be001000050081
:102150000000050044082000848f50002500320054
:1021600008003c0014082000848f50001400320046
:1021700024082000848f500024003200040820002e
:102180000c00370004092000848f50001f0032002b
:1021900004003c0084082000848f500024003a0092
:1021a0000e003700040a2000848f50001100320016
:1021b000040c2000848f50001d003a000d003700f1
:1021c0009380e90081097800910078000108780087
:1021d000cf91de008288be00140037009380e900b2
:1021e0008109780091007800010878008248780021
:1021f0000e0037009380e900810978009100780093
:102200000108780082087800080037009380e90010
:102210008109780091007800010878006112b90006
:10222000612bb9008498be008690be0010000500a6
:1022300000000500889fbe00000478004800900060
:1022400082047800808f54000100360080047800fa
:1022500009017800580090002602070058009000fd
:102260000900400050049800c80090008984500084
:10227000490498000048eb004f04be00000006002f
:10228000f2874700889fbe008a9fbe008c9fbe00d9
:102290008e1f780080047800010578000204780021
:1022a000830578006107620002003a008b0f54003a
:1022b00008003900080178008a00780009007800d9
:1022c000dcff07008b0f54000200390088057800fe
:1022d0001e003700088655000c017800f00f5600ec
:1022e0000100360002012000010220007e8057001c
:1022f000070207008c067800050037000201200065
:10230000fe80570009007800caff0700f0865600db
:10231000ef8f5600f9ff3e004461de0000ff2f0002
:102320000091b90002014600fe80570009007800c4
:10233000c0ff07000e00e00004003a00080178002a
:102340008a00780009007800baff07000b007800c7
:102350004f0778004f06be004f05be004f04be0079
:102360002f01b1000000060000000500000005007c
:1023700000000500000178000040eb008080fb00b9
:102380008180400023c1200063c278000404e00083
:1023900003003a0030c1200060c078000000060051
:1023a00092017800934f520004003a0030c120009f
:1023b00060c078000309e800010037000040e80031
:1023c000ea4f5000edff360000000600f687470098
:1023d000889fbe008a9fbe008c9fbe008e1f780023
:1023e0000005780001047800830578000406780071
:1023f0000000eb00c0b79f008080eb00d1b79f00ca
:10240000e0b79f00f2b79f000008200080bf9f0048
:1024100098007800010078008004eb00010037008c
:102420008904e800304178000204e0000300320033
:1024300053c2b300834f5100f9ff3a000900e00096
:1024400004003200090178000a00780079ff0700d3
:10245000188c44001807780050c2b3009e4f10003b
:102460003f013a000e07e8000e0c7800100037001c
:10247000cfb097000100a0000b003700cfb097004d
:102480000110a00008003700cfb097000120a00085
:1024900005003700cfb097000130a00002003700e0
:1024a000cfb097000140a000c1b79f00000ce8002a
:1024b0001800780090407800b2c2b30082cf50007c
:1024c000f1ff320007003c0002c2b30082cf50008f
:1024d000f0ff320032c2b30082cf500007003a0052
:1024e000efff3700d2c2b30082cf5000e0ff3200ce
:1024f00002c3b30082cf5000e0ff3200a2c2b3009b
:1025000082cf50000d003a00000ce8001c80e9006a
:10251000000e780010007800e0b79f000000e00097
:102520000f003d00cfb097000100a200c1b79f008f
:102530000000ea00e0b79f000900370021fb070018
:10254000e0b79f0001003700000ce8001800780099
:102550009000fb000103b100e98f5000faff360044
:102560004fb097000008a300020032000010a10045
:10257000c0b79f0018007800e1c2b30090cf1000f0
:1025800016003a008000eb00d1b79f000000e80081
:10259000000c7800a1c2b30090cf100006003a00f2
:1025a000000ce8001c80e900000e780010007800a4
:1025b000d0b79f000900370002fb0700d0b79f008b
:1025c00001003700000ce800180078009000fb00c4
:1025d0000103b100e98f5000faff360008007800cf
:1025e00064ff070080467800180078001000fb00a8
:1025f000e001070091062000810f500038003200f2
:1026000012003c0041062000810f500034003200cf
:102610000a003c0011062000810f5000200032000b
:1026200031062000810f5000a0003200510220002e
:10263000810f5000bc003a00b40037007106200042
:10264000810f5000b8003c008800370001072000cf
:10265000810f50005c00320007003c00e1062000c2
:10266000810f50007a003200f1062000810f5000e7
:10267000ad003a003900370051072000810f5000ab
:102680002700320081072000810f500042003200f5
:1026900031072000810f5000a3003a008f0037005f
:1026a0008d80fb000c01780000fe2f000f00400021
:1026b000e30107000000e000a800320018007800e5
:1026c000000ce8009041780002fe2f000f0141004d
:1026d000f88057000a00780024ff07000e0037003a
:1026e0008d80fb008c0178001200200000fe2f007e
:1026f0000f00400043fe07000000e000970032009a
:10270000180ce80002fe2f000f014100f88057006e
:102710000a0078005efc07008084440090003700c7
:102720008d80fb008c0178000001eb0000fe2f0083
:102730000f00400033fe07000000e0008700320079
:10274000180ce80002fe2f000f014100f88057002e
:102750000a00780059fd0700efff37008d80fb006d
:102760008c0178000001eb0000fe2f000f004000fc
:1027700024fe07000000e00078003200180ce8009a
:1027800002fe2f000f014100f88057000a00780078
:1027900098fc0700e0ff37008d80fb008c0178007b
:1027a0000001eb0000fe2f000f00400015fe0700a7
:1027b0000000e0006900320018007800000ce8001a
:1027c000904178001c0037008c0178000001eb007c
:1027d000010f200000fe2f000f00400009fe07003f
:1027e0000000e0005d003200180ce8000fb0970018
:1027f0009fb097002fb19700bfb19700e00f500036
:10280000e08f5800e00f5900e08f590009003a00ae
:10281000cfb597006fb49700a0c020008ffa0700d3
:102820000b0278008801780000017800a1c0200028
:102830004700370083c7b30002fe2f000f0141009d
:10284000f88057000a00780045fd0700b2ff370006
:102850000b8144008d80fb008c01780000fe2f006e
:102860000f0040003bfe07003c0037008d80fb005e
:102870000c01780000fe2f000f00400070010700df
:102880000000e0003500320018007800000ce8007d
:102890009041780002fe2f000f014100f8805700a0
:1028a0000a007800b1fe07009bff370000c8b300a4
:1028b00080cf560029003a00180ce8001c80e9007f
:1028c000000e780010407800e0df9f001300200029
:1028d000e2fd2f000f0141000800370000c8b300df
:1028e00080cf56001d003a00180ce8001c80e9005b
:1028f000000e78008001eb0010017800f88057008e
:102900000a00780070fc070083ff370000c8b3009e
:1029100080cf560011003a00180ce8004fb2970023
:10292000efb19700080037000e0c78000000eb00b4
:10293000c0b79f00e0b79f000080eb00d0b79f00ba
:102940000002eb00840178001200200001c1200089
:102950000a0078004afe07006fff3700180ce800f5
:10296000090078004f0778004f06be004f05be00f3
:102970004f04be006f01b100000006008200fa00a3
:10298000889fbe008a1f78000005780082047800c6
:10299000c13f9f000004eb001000370009027800df
:1029a00088017800a2f72f000f01410081f72f0066
:1029b0008f8040000a00780084fe07000800400075
:1029c000880f500004003d00b004200040618800e2
:1029d0000084eb0004003700000478004f389700b3
:1029e0001004e000edff3a00080078004f05780081
:1029f0004f04be000080fa00000006008180fb004a
:102a0000010037000201e900800178000008a300fe
:102a1000060032000200e000230032003082fb009a
:102a2000810f5200f7ff3a00030037000000eb006f
:102a30000200e0001e0032001380fb00810f5000f6
:102a40001c00320014102000048ab90084027800af
:102a5000010037000281e90003007800e10f510016
:102a60000a00360033826a00f6ef2f0004034300a9
:102a70000482ea00040263000608280006026200dd
:102a8000f4ff3200010037000201e9008001780004
:102a90000200e000050032003082fb00810f52008e
:102aa000f9ff3a0003003700000005000000eb00ca
:102ab0000000060003007800000006000100370057
:102ac0000201e9000200e000050032003042780017
:102ad000b1417800834f5200f9ff32000100370006
:102ae000000005000480fb008381fb000300500010
:102af000000006008001780002003700b15978001c
:102b00000201e9000200e000fcff3a0000000600bc
:102b1000889fbe008a9fbe00800478000200e0000b
:102b20005b00320001407800814c780082814400d3
:102b3000f1f99f00e20f51005500360091449800d2
:102b4000a1449800e1f99f00d1f99f00e60f5100e0
:102b50004f003600b1449800c1f99f00e80f5100c2
:102b60004b0036000905ea00630565000a8444004d
:102b70000a055100c1ff2f00010565000080fb0020
:102b80008000eb0012102000131020000d01070040
:102b9000008cbe000a01440060b99f0071b99f001b
:102ba000e80f55003a0036002004980031049800e0
:102bb000400498005104980020b99f0031b99f004b
:102bc00040b99f0051b99f00f80f55003000360002
:102bd0006004980071049800000c9800110c980093
:102be000200c9800310c9800400c9800510c980073
:102bf00020b19f0031b19f0040b19f0051b19f00b3
:102c000060b19f0071b19f0000b99f0011b99f0092
:102c1000640164007801410002044400020555008b
:102c20006011b8000203be000002be000403be0033
:102c30006022b800000072008180720002017300ff
:102c40008381730010003700009cbe000294be0018
:102c5000400498005104980062049800730498009e
:102c6000000c9800110c9800220c9800330c98006e
:102c7000400c9800510c9800620c9800730c98005e
:102c80000a02b1000802b000ff0f5500eeff3e003f
:102c9000090078004f05be004f04be00000006008a
:102ca000881f78000104780088007800050007007c
:102cb000904f1400010032000000eb004f04780038
:102cc00000000600881f7800000478008180fb0067
:102cd0000a003a000800780060f90700000044008c
:102ce000220037001804e000200032000804e80049
:102cf0001081fb00810f51001c0032000800780099
:102d00000808a300f7ff3a0014102000048ab90055
:102d10000801780038007800f5ef2f00808242002b
:102d20008081ea00838262000308280083826200b7
:102d300007003a0000006a00f5ef2f008082420091
:102d40000080ea000080620083016000f0ff320032
:102d5000020078001204e000040032000201e800e2
:102d60009081fb00818f5100f9ff3a004f047800f9
:102d700000000600f1fb2f0080804000f98f50001a
:102d800001003e000050a00000000600f9ff3700df
:102d9000f1f92f0080804000f98f500001003e00c3
:102da000f005b20000000600f9ff3700f287470087
:102db0008e1f780002027800030178000000e00016
:102dc00002003200000778000100370072875700c8
:102dd0008002eb000100e000010032008102e90006
:102de00070805700060009000018eb000080eb001f
:102df00080bf9f002310200093bf9f00aebf9f00a5
:102e0000b1bf9f00c5bf9f000100e00003003d006f
:102e1000b10420004161880006003700004feb003c
:102e2000eebf9f00debf9f008400780070805700d7
:102e3000220007004f0778002f01b10000000600b4
:102e4000881f78000004780000082000808f500060
:102e50001700350010082000808f50000b00340050
:102e600030082000808f500011003a009200780056
:102e700068805000000978003002be002003be00c8
:102e8000049cbe000694be00070037009202780042
:102e900064805200000978001000be001500070091
:102ea000009cbe000294be0010002000010037000c
:102eb0000000eb004f047800000006000200fa005a
:102ec000881f780000047800e2bf9f0064815700eb
:102ed00008007800a9fe0700980090000148a300b0
:102ee000010032000080eb004f0478000080fa00ff
:102ef00000000600810378001d0007000001be00ed
:102f00006000b8000478a30013003a006220e100da
:102f100015003e000d0039008301d1000281d3006d
:102f20008180d3008301d1000281d3008180d3004e
:102f30008301d1000281d3008180d3000538b00025
:102f4000c42add00f300b2008381720007f0a700fd
:102f500003f0a0000000060083ff2700020020000d
:102f60006110b900f9ff370003ff2700f7ff3700b2
:102f7000c70ade00f107b200f50fb2000800320008
:102f8000e1cf4200020032000170a00024000500e1
:102f9000810f7000010032000408050044000500a4
:102fa000810f700002003a00140005008502e9005c
:102fb0000000400081c04800fcff3b000170a00001
:102fc00024000500020ab900001bb9000200b80085
:102fd000810042008100430000000600889fbe007f
:102fe0008a9fbe0030044200b0844a0030054b0086
:102ff00090854b006000b1000898be000a90be00aa
:103000000440e10005c8e10006d0e10007d8e10076
:1030100002003100680040001008e8004f05be00c3
:103020004f04be0000000600889fbe008a9fbe00bd
:103030003004be002005be000418540005985c0052
:1030400006185d0007985d00110020000440e100b3
:1030500005c8e10006d0e10007d8e1000100390011
:103060008000eb00108810004f05be004f04be002a
:10307000000006001200fa00889fbe008a9fbe0072
:103080008c9fbe00e0b79f00f1b79f0082bf9f00fa
:1030900093bf9f000605be000404be000000eb00c5
:1030a000d0b79f00c0b79f00b0b79f00a0b79f00e8
:1030b00090b79f00000678005fb19700cfb09700ef
:1030c000820141003fb097000200e00004003d0093
:1030d000370007007e805700c0ff0700030037005d
:1030e000330007007e805700cfff0700dfb6970050
:1030f0000d00e0000c0035006fb29700ffb29700a2
:103100000fbb97009fbb970010002000010020001c
:103110006011b80000027200818272000203730025
:10312000838373001b0007000c06e80001042000e5
:10313000810f5600e0ff3a000d00e00004003d0062
:103140000802be000a03be007e805700a3ff0700ee
:103150005fa897000000e00005003a001fb297004a
:10316000afb297003fb39700cfb3970009000700b5
:103170006fb09700ffb097000fb997009fb9970005
:103180004f06be004f05be004f04be000080fa008f
:10319000000006000100070000000600a4b79f0021
:1031a000b5b79f00c6b79f00d7b79f0000000600c5
:1031b0004f09de0082817100b3b79f004f01de002e
:1031c0008180400082807000a1b79f008fb097007f
:1031d0004f09de00000040000200700090b79f0021
:1031e0007fa897004f01de00818040008280700040
:1031f00081b79f000d0007004f3ade00000040003d
:1032000004007000f0af9f000800070004024200b5
:1032100085824a0006034b0087834b00dfff0700cf
:103220000802be000a03be00000006002fb297008d
:10323000bfb297004fb39700dfb3970000000600be
:10324000881f780018002000881f780089ff070079
:103250008f87e9004f04780000000600801feb0014
:1032600084ff07008f87e90000000600889fbe00ea
:103270008a9fbe00e00f5000e08f5800e00f590019
:10328000e08f59000c003d006044b8006055b80064
:103290000000540081805c0002015d0083815d00bc
:1032a000180020001500070008003d001800070066
:1032b0000004eb00050037000004eb000f000700de
:1032c00002003d001200070018002000dcff07008c
:1032d0000800e000060032006022b8006033b80049
:1032e0000000520081805a0002015b0083815b0074
:1032f0004f05be004f04be0000000600e00f520064
:10330000e08f5a00e00f5b00e08f5b0000000600da
:103310006044b8006055b8000402540085825c0027
:1033200006035d0087835d0000000600889fbe00e5
:103330008a9fbe008c1f7800e00f5000e08f58007d
:10334000e00f5900e08f59000d003d006044b800c7
:103350006055b8000000540081805c0002015d00ef
:1033600083815d001c0020000820e10009a8e10025
:103370000ab0e1000bb8e1000d003d000800370085
:103380000006eb00e00f5200e08f5a00e00f5b00f8
:10339000e08f5b0006003d006044b8006055b80057
:1033a0000402540085825c0006035d0087835d0093
:1033b000aaff07000c00e000060032006022b800ff
:1033c0006033b8000000520081805a0002015b00a7
:1033d00083815b004f0678004f05be004f04be009e
:0433e00000000600e3
:020000040000fa
:1033e40022250000732200003a0000002725000077
:1033f400732700003a00000022440000302200003d
:103404003a00000027440000302700003a00000082
:10341400443000000022000044310000223a000041
:103424000027000044310000273a00000044000057
:103434003100000022440000322200003a00000063
:1034440027440000322700003a0000004432000004
:1034540000410000780000004179000000410000b4
:103464007a000000443600000044000037000000e9
:1034740044420000004400005600000070000000b8
:103484006e00000076000000616c000065720000b0
:10349400745f0000746800007265000073680000c7
:1034a40000220000622200003a00000027620000af
:1034b400273a000000620000002c000020000000f9
:1034c40022000000223a00005b000000002c0000f3
:1034d400002500006425000073000000257500002d
:1034e40025730000005d0000007b0000007d0000eb
:1034f4000d0a0000002d00002d2d00002d200000dd
:1035040053410000442000004441000044200000d6
:103514005379000073740000656d000020530000af
:10352400746100007274000065640000202d0000c6
:103534002d2d00002d0d00000a0000007b2200004c
:10354400737400006174000075730000223a000077
:10355400226300006f6e000066690000675f000070
:10356400757000006461000074650000642200004e
:103574007d0d00000a0000007b220000616c000049
:1035840065720000742200003a2200007468000092
:1035940072650000736800006f6c0000645f0000d7
:1035a4007265000061630000686500006422000029
:1035b4002c200000227600005f760000616c000081
:1035c400223a0000256400007d0d00000a0000007e
:020000040000fa
:1035d4000000fa009021ef00a0612000900c880008
:1035e40041058000f0ff2800808060000000250075
:1035f40001007000400588008860a9009860a80058
:1036040000032800a00c88000080fa0000000600d7
:103614000000fa0090012000001d880001088000cd
:10362400f00b200000816000600420007105200080
:10363400031020008049780081497800824978008d
:10364400213f8000f00f28008080600000302000bf
:1036540001007000203f8800a13d800000fc2f0085
:1036640000806000a000b300a03d88009823ef0014
:1036740099e3a8009a23ef009b43a800610580000a
:10368400f0ff28000080600000e0a00060058800d2
:103694008960a9009960a8000080fa000000060073
:1036a4000200fa00004f780000000000d11c8000e6
:1036b40000202000008060000000e000fbff3a00d2
:1036c4001e00fb00e01c88000080fa0000000600d9
:1036d4000200fa00000f7800040037001e00780092
:1036e400104078001e0fe800edff07001e00780070
:1036f400104078000004e000f8ff3a000080fa006f
:10370400000006000000fa007606a8007e06a80065
:103714007686a8007e86a80076a6a8007ea6a800c5
:103724004627ef00313a8000f0f02f00008060005f
:10373400303a88004827ef0020002000503a8800e3
:1037440047e7a8000080fa00000006000400fa0021
:10375400100798001e009000603a88004627a800d1
:103764000000eb00000f7800030037001e00780013
:103774000000e800000f78009e007800300620006a
:10378400808f5000f9ff34004627a9000000000094
:10379400303a8000610060000000e000fcff32006d
:1037a4004607a900903880000080fa000000060057
:1037b4001c00fa00300f9800410f9800520f980037
:1037c4000e80e800ce089000811f7800219f290018
:1037d400811f780069f60700e48757000e80e8002f
:1037e400800078003e089000fbf70700000f780087
:1037f4001e0078000000e0000c003a000e80e80093
:10380400ce089000811f7800819f2900811f7800d5
:103814005af60700e48757000e80e800800078001d
:103824003e089000ecf70700000f78001e007800b7
:103834000000e000110032000e80e80086f6070068
:103844001e0f4000010037001e0fe8001e00780024
:103854009040780000c2b30080cf5000faff3200dd
:103864001e00780010407800e94f5000f6ff320047
:103874001e00780052f60700010037005e08900031
:103884000080fa00000006000200fa00000f780031
:10389400e19f29001e007800cff707000000e00038
:1038a40005003a0041a029001e007800caf707006d
:1038b4000000e0000c0032000001eb00a1a0290090
:1038c4001e007800baff07000040780061406000e5
:1038d4000080fb0061006000213380000100a10032
:1038e4000100700020338800d1a029001e00780058
:1038f400b9f707000000e00005003a0031a12900f3
:103904001e007800b4f707000000e0000d0032004c
:103914000001eb0091a129001e007800a4ff07001c
:1039240000407800614060000080fb00610060009e
:1039340000004000213380000110a100010070004c
:1039440020338800c1a129001e007800a2f70700d7
:103954000000e00005003a0021a229001e007800c2
:103964009df707000000e0000d0032000001eb00ad
:1039740081a229001e0078008dff07000040780016
:10398400614060000080fb00610060004200dd00d7
:10399400213380000120a100010070002033880041
:1039a4000040800000017800b1a229001e007800c8
:1039b4007fff07000040880010408000000178006d
:1039c400e1a229001e00780079ff0700104088005a
:1039d400204080000001780011a329001e00780017
:1039e40073ff070020408800304080000001780009
:1039f40041a329001e0078006dff070030408800b5
:103a0400404080000001780071a329001e00780066
:103a140067ff0700404088005040800000017800a4
:103a2400a1a329001e00780061ff07005040880010
:103a34006040800000017800d1a329001e007800b6
:103a44005bff0700604088000041800000017800af
:103a540001a429001e00780055ff070000418800da
:103a6400f04080000001780021a429001e007800a5
:103a74004fff0700f0408800f14080002003200041
:103a8400808f50000200340020032000f0408800a2
:103a9400f04080000000e00002003c001000200024
:103aa400f0408800804080000001780041a4290093
:103ab4001e0078003eff070080408800104180000f
:103ac4000001780061a429001e00780038ff070077
:103ad4001041880031a529001e0078003ef7070038
:103ae4000000e00005003a0081a529001e007800ce
:103af40039f707000000e000100032007040800039
:103b040000017800d1a529001e00780028ff0700d5
:103b14007040880070408000004078006140600080
:103b24000080fb00610060004700dd00113380006d
:103b34000170a10001007000103388000080fa00b9
:103b4400000006002c00fa001017980021179800b6
:103b54003217980043179800541798005e1090008d
:103b64000000e00002003a00f0a52900d8fe07009a
:103b740020a62900d6fe07001e109000d4fe0700e0
:103b840040a62900d2fe07000000eb00000f7800d9
:103b94002f0037004e1090000000e00015003200a6
:103ba400f04080000000e9009e0f500002003a003f
:103bb40080a629000100370090a629009e00780005
:103bc400818040003e119000810041001101780085
:103bd4008e80e800801f7800821f7800b0a629003c
:103be400801f78000100780057f50700e68757002a
:103bf40014003700f04080000000e9009e0f5000e0
:103c040002003a0080a629000100370090a629008e
:103c14009e007800818040002e11900081004100b8
:103c2400110178008e80e800801f7800821f7800e0
:103c340000a72900801f78000100780042f50700e2
:103c4400e68757000e80e800a1fe07001e0fe8007b
:103c5400f04080009e007800808f5000cdff35003a
:103c640050a729009afe07000080fa000000060011
:103c74000200fa0010002000000f780070a729004d
:103c840093fe0700004080000000e00008003200be
:103c94001e0278008001eb000001eb00e19220009d
:103ca400b0a22900a7ff07000000eb00000f780076
:103cb400104080000000e000080032001e0278007e
:103cc4008001eb000001eb0021992000e0a2290013
:103cd4009cff07000000eb00000f780020408000ec
:103ce4000000e000080032001e0278008001eb00b2
:103cf4000001eb00619f200010a3290091ff070041
:103d04000000eb00000f7800304080000000e0006d
:103d1400080032001e02780013002000a2a5200033
:103d24008000eb0040a3290086ff07000000eb00a1
:103d3400000f7800404080000000e00008003200de
:103d44001e02780013002000e2ab20008000eb008c
:103d540070a329007bff07000000eb00000f780030
:103d6400504080000000e000080032001e0278008d
:103d74001300200022b220008000eb00a0a3290041
:103d840070ff07000000eb00000f78006040800027
:103d94000000e0000b003200804080000000e000e2
:103da400080032001e0278001300200062b82000d0
:103db4008000eb00d0a3290062ff07000000eb00a5
:103dc400000f780090a7290041fe07000080fa0048
:103dd400000006004600fa00881f780010279800ab
:103de4002127980010002000303588006226ef005b
:103df4006426ef009ec6a8009ee6a80062e6a9001d
:103e040040fe070002fe0700f1fd0700d0a72900cd
:103e14002ffe0700070037000000000005003700f0
:103e2400000000000300370000000000010037001c
:103e340000000000a04080000000e0000d003200ff
:103e44009960a900e08220008ffe07001228ef008d
:103e54001428ef009960a80000aa29001cfe07009e
:103e6400b1408000f0408000808f50000100350098
:103e74001628ef00d04080000000e000e6ff32008a
:103e84001a28ef00004080000000e0000700320024
:103e9400b8408000500020002cfe070008014400b8
:103ea400e1922000810041008008780010408000e9
:103eb4000000e00007003200b8408000400020000d
:103ec40022fe0700080144002199200081004100de
:103ed40080087800204080000000e00007003200e5
:103ee400b84080000000eb0018fe07000801440001
:103ef400619f2000810041008008780030408000ec
:103f04000000e00009003200b0408000013580006c
:103f1400c608de00e1c060008180fb0000014000b3
:103f2400a0a5200000004100010878004040800066
:103f34000000e00009003200b0408000013580003c
:103f4400c708de00e1c060008180fb000001400082
:103f5400e0ab2000000041000108780050408000e0
:103f64000000e00009003200b040800021338000ee
:103f7400c708de00e1c060008180fb000001400052
:103f840020b2200000004100010878000000eb008e
:103f9400000f7800804080000000e0001300320031
:103fa400003580004700de00614060000080fb00b7
:103fb4000000400080007800003580004600de00ec
:103fc400614060000080fb00008f70006040800052
:103fd4000000e00005003200b04080008000400096
:103fe40060b82000008040001e087800b0408000c7
:103ff4000000e800b0408800b1408000f04080003c
:10400400808f50000200350019ff07001628ef00ca
:10401400804080000000e00081ff320010418000f9
:10402400e10f400080ff3200104180009e007800c4
:10403400808f50000f003a00e04080000000e00054
:104044000c003a000e80e8009e1f7800e1ab2900c6
:10405400811f78003cf40700e48757000e80e800d5
:104064009bfd070010002000e040880000000000d5
:1040740070ff3700104180009e007800808f500050
:104084006bff32001c28ef006aff37000000fa00c3
:1040940000002800303a88004827ef004a27ef0044
:1040a4004c27ef004e27ef005027ef005227ef0078
:1040b4005427ef005627ef005827ef005a27ef0048
:1040c4005c27ef005e27ef00f422ef0000072200d8
:1040d400050007000080fa00000006000000fa0056
:1040e4000080fa00000006000200fa00000f7800c9
:1040f4001e007800404188000080fa00000006009d
:104104000000fa00410480000000220000806000ea
:104114000000e00006003200404180000000e000a2
:1041240002003200404180000000010089a0a90083
:104134000080fa00000006000000fa004627a800ec
:104144000080fa00000006000000fa004627a900db
:104154000080fa00000006000800fa00300798000a
:10416400403a80004200de007f4060000080fb0097
:104174002007980020712000100798000000eb0031
:10418400000f78000b0037001e007800000040008c
:10419400be009000008040009e00900091007800d6
:1041a400010878001e0090000080e80010079800c5
:1041b4001e0fe8009e0078002e009000808f5000b3
:1041c400f1ff36001e0078000080fa0000000600af
:1041d4000000fa006626ef007a26ef008e26ef0034
:1041e400a226ef00b626ef00ca26ef00de26ef0077
:1041f400f06f2c00103388000080eb00b03388008f
:10420400e0012700503488000080eb00f03488007f
:10421400f03f200090358800f01b230030368800e2
:10422400f03c2f00d03688007426ef008826ef007b
:104234009c26ef00b026ef00c426ef00d826ef003e
:10424400ec26ef007226ef008626ef009a26ef0098
:10425400ae26ef00c226ef00d626ef00ea26ef00d6
:104264006826ef007c26ef009026ef00a426ef00de
:10427400b826ef00cc26ef00e026ef00006c20000b
:1042840050338800c0ff2f00f03388000001220063
:1042940090348800000c2000303588000021200074
:1042a400d0358800003c2000103788000080fa00d8
:0442b4000000060000
:020000040000fa
:1042b8002408000004000000800000002808000016
:1042c8000200000080000000ea0b0000200000004f
:1042d800800000002a0800000200000082000000a0
:1042e800ffff00002e080000bc0300008000000053
:1042f800000800001e000000800000001e080000ea
:1043080006000000820000000100010000ffff001d
:104318002c08000002000000800000000a0c0000c9
:104328001e00000082000000286e69006c29000051
:1043380025006800076c09004c836a009074a0008f
:104348007ac000008068880000846c0082008100c8
:10435800280c00000200000080000000000000009f
:020000040000fa
:104368000000fa0000002300100888000621ef0072
:104378006821ef006a21ef000821ef00007020009b
:10438800500888000c21ef000e21ef007821ef0083
:104398007a21ef007c21ef007e21ef008021ef00e1
:1043a8008221ef008421ef008621ef000001eb005d
:1043b80080072000a1092000131020008049780000
:1043c80081497800824978000001eb0060042000f0
:1043d8007105200003102000804978008149780089
:1043e800824978000080fa00000006000400fa0004
:1043f8000000eb00100798000000eb00000f7800a9
:104408001e0078000080fa00000006000600fa008e
:104418006000b800008fbe000000eb002007980085
:10442800f2ff0700200798002e0090008000eb00a4
:1044380086f00700020020000348240085f00700ea
:10444800323323003305240061f10700008fbe00da
:104458001e00be000080fa00000006000200fa00fc
:10446800000f78009e007800514188000000fe008f
:104478000080fa00000006000000fa00a0be20003c
:104488008007780020c02000000188000080fa0022
:1044980000000600809fbe00ec80570031007800c5
:1044a800204188001100780026e8b7004f00be00c0
:1044b800000006000000fa0044ff0700a8ff0700fc
:1044c80003000700f0fe07000080fa000000060065
:0c44d8000000fa000080fa00000006005e
:020000040000fa
:020000040015e5
:047e0000ffffff0081
:020000040000fa
:020000040015e5
:047e2000ff1f000040
:020000040000fa
:020000040015e5
:047e300078ffff00d8
:020000040000fa
:020000040015e5
:047e3800b7ffff0091
:020000040000fa
:020000040015e5
:047e40009fffff00a1
:020000040000fa
:020000040015e5
:047e4800ffffff0039
:020000040000fa
:020000040015e5
:047e5000dfffff0051
:020000040000fa
:020000040015e5
:047e5800ffffff0029
:020000040000fa
:020000040100f9
:04300000ffffff00cf
:00000001FF
